:020000040800F2
:10000000000400209101000853C10008930100087A
:100010009301000893010008930100089301000870
:100020009301000893010008930100089301000860
:100030009301000893010008930100089301000850
:100040009301000893010008930100089301000840
:100050009301000893010008930100089301000830
:100060009301000893010008930100089301000820
:100070009301000893010008930100089DD2000835
:100080009301000893010008930100089301000800
:1000900093010008930100089301000893010008F0
:1000A000930100089301000893010008B5CF0008F0
:1000B000CDCF0008D7CF000893010008ADD40008C9
:1000C00072B6244880F30888234880F30988022008
:1000D00080F31488BFF36F8F0BF04AFD0BF010FB19
:1000E0001E481F491B4A914202DA08600431FAE7B0
:1000F0001C49194A914202DA08600431FAE71A49A8
:100100001A4A1B4B9A4204DA086810600431043220
:10011000F8E700201749184A914202DA08600431D2
:10012000FAE70BF029FD0BF024FD144C144DAC4202
:1001300003DA216888470434F9E706F02BF8114CFC
:10014000114DAC4203DA216888470434F9E70F49BE
:100150000847000000040020000C002055555555AC
:10016000000000200004002048F40008000C0020DB
:10017000FC100020001100205C2C0020C0000008B2
:10018000C0000008C0000008C000000875BB0008DF
:1001900096E700F000F8FEE7F0B544464D465646B7
:1001A0005F46F0B46B46CB60C3689D46F0BCA0468A
:1001B000A946B246BB46F0BD62B6281CA047002047
:1001C0000BF044FFFEE70BF0A7FE024A024B136060
:1001D000FEE7C04604ED00E00000008002B4714676
:1001E00049084900095649008E4402BC7047C04680
:1001F00002B4714649084900095C49008E4402BCBA
:100200007047C04603B47146490840004900095A86
:1002100049008E4403BC7047002243088B4274D3CC
:1002200003098B425FD3030A8B4244D3030B8B42F7
:1002300028D3030C8B420DD3FF22090212BA030C00
:100240008B4202D31212090265D0030B8B4219D3E1
:1002500000E0090AC30B8B4201D3CB03C01A524101
:10026000830B8B4201D38B03C01A5241430B8B4249
:1002700001D34B03C01A5241030B8B4201D30B0332
:10028000C01A5241C30A8B4201D3CB02C01A524159
:10029000830A8B4201D38B02C01A5241430A8B421C
:1002A00001D34B02C01A5241030A8B4201D30B0205
:1002B000C01A5241CDD2C3098B4201D3CB01C01A1F
:1002C000524183098B4201D38B01C01A5241430929
:1002D0008B4201D34B01C01A524103098B4201D317
:1002E0000B01C01A5241C3088B4201D3CB00C01A84
:1002F000524183088B4201D38B00C01A52414308FC
:100300008B4201D34B00C01A5241411A00D2014620
:10031000524110467047FFE701B5002000F0F0F8A9
:1003200002BDC0460029F7D076E7704703460B436D
:100330007FD4002243088B4274D303098B425FD3DE
:10034000030A8B4244D3030B8B4228D3030C8B420A
:100350000DD3FF22090212BA030C8B4202D31212F0
:10036000090265D0030B8B4219D300E0090AC30BC5
:100370008B4201D3CB03C01A5241830B8B4201D372
:100380008B03C01A5241430B8B4201D34B03C01A5B
:100390005241030B8B4201D30B03C01A5241C30AD3
:1003A0008B4201D3CB02C01A5241830A8B4201D344
:1003B0008B02C01A5241430A8B4201D34B02C01A2E
:1003C0005241030A8B4201D30B02C01A5241CDD2D3
:1003D000C3098B4201D3CB01C01A524183098B421E
:1003E00001D38B01C01A524143098B4201D34B0107
:1003F000C01A524103098B4201D30B01C01A52416A
:10040000C3088B4201D3CB00C01A524183088B42F0
:1004100001D38B00C01A524143088B4201D34B00D9
:10042000C01A5241411A00D201465241104670474B
:100430005DE0CA0F00D04942031000D34042534050
:1004400000229C4603098B422DD3030A8B4212D310
:10045000FC22890112BA030A8B420CD38901921142
:100460008B4208D3890192118B4204D389013AD07F
:10047000921100E08909C3098B4201D3CB01C01A54
:10048000524183098B4201D38B01C01A5241430967
:100490008B4201D34B01C01A524103098B4201D355
:1004A0000B01C01A5241C3088B4201D3CB00C01AC2
:1004B000524183088B4201D38B00C01A5241D9D2DA
:1004C00043088B4201D34B00C01A5241411A00D25B
:1004D0000146634652415B10104601D34042002B57
:1004E00000D54942704763465B1000D3404201B5D6
:1004F000002000F005F802BD0029F8D016E770478B
:100500007047C0469140031C90409C46203A93405F
:10051000194352426346D34019437047002B11D10F
:10052000002A0FD1002900D1002802D00021C943A0
:10053000081C07B4024802A14018029003BDC0463F
:10054000C1FFFFFF03B4684601B5029800F030F820
:10055000019B9E4602B00CBC7047C046F0B5CE462B
:10056000474615042D0C2E0080B50704140C3F0CD3
:100570009946030C7E435D43674363437F19340C04
:10058000E4199C46A54203D980235B029846C444E3
:100590004B4643435143250C36046544360C240432
:1005A000A4195B19591820000CBC90469946F0BD5F
:1005B000F0B557464E464546DE46E0B5040083B0EA
:1005C0000D00924699468B4230D82DD04946504670
:1005D00000F0C0F829000600200000F0BBF8331A34
:1005E0009846203B9B4633D45A4653469340424656
:1005F0001F00534693401E00AF423AD8AF4200D18D
:100600007BE05B46A41BBD41002B00DA78E00022B2
:1006100000230092019301235A4693400193012342
:1006200042469340009328E08242CFD90022002323
:10063000009201930C9B002B01D01C605D60009820
:10064000019903B03CBC90469946A246AB46F0BD2A
:10065000424620239B1A5246DA40414613004A463E
:100660008A40170042461F43534693401E00AF4244
:10067000C4D900220023009201934346002BD9D015
:10068000FB079C46614672080A437B0846460EE01B
:10069000AB4201D1A2420CD8A41A9D4101202419D9
:1006A0006D410021013E24184D41002E06D0AB4281
:1006B000EED9013E24196D41002EF8D10098019920
:1006C0005B4600196941002B25DB2B005A46444646
:1006D000D3402A00E2401C005B461500002B2BDBB8
:1006E00026005F46BE40330026004746BE4032002B
:1006F000801A9941009001919CE7A342B9D880E704
:100700004246202300219B1A0022009101920122DF
:10071000DA40019283E7424620239B1A2A0046468C
:100720009A402300F340444613432A00E2401C0051
:100730005B461500002BD3DA2023424626009B1A85
:10074000DE402F00B4464646B74066463B00334382
:10075000CAE7C04610B5002903D100F007F82030E1
:1007600002E0081C00F002F810BDC0461C21012365
:100770001B04984201D3000C10391B0A984201D384
:10078000000A08391B09984201D30009043902A262
:10079000105C40187047C0460403020201010101C9
:1007A000000000000000000010B5062000F0D6F99F
:1007B00001200DF0B5F9C04630B5032A0CD903006D
:1007C0000B439B071CD103680C68A34218D1043A61
:1007D00004300431032AF6D8551E002A0ED00278C0
:1007E0000C7894420ED101350123013904E0C25C3A
:1007F0000133CC5CA24205D1AB42F8D1002030BD20
:10080000551EECE7101BFAE7F0B5C64600B50F2AF7
:1008100043D90B00032603431E400C000300002EA7
:1008200040D11500103D2D09AC462D01A84680444D
:1008300000E03B00676825685F60E7681D60DF6077
:100840001F00A56810379D6010344345F1D16546FF
:100850000F230C2401352D01491913404519144269
:1008600023D08C59AC5104369C1B032CF9D803249B
:10087000043B9B0801339B002240ED18C918561E0B
:10088000002A07D0002300E02300CA5C5C1CEA5465
:100890009E42F9D104BC9046F0BD0500561E002AC8
:1008A000F0D1F7E7561E0500ECE71A00F6E7C04660
:1008B000F0B5050083074AD0541E002A44D0CEB2BA
:1008C0000300032202E00135013C3DD301332E70C9
:1008D0001342F8D1032C2FD9FF220A4015021543E9
:1008E0002A0415430F2C35D92700103F3F093E013C
:1008F000B4461E001A0010366644156055609560B7
:10090000D5601032B242F8D10F260C2201373F01D8
:100910002640DB193700224217D03E1FB608B4002C
:10092000A4461A001C1D644420C2A242FCD1032428
:100930000136B6009B193C40002C05D0C9B21C19E9
:10094000197001339C42FBD1F0BD3400F4E7140070
:100950000300BFE72700E0E7114B70B51C680500F6
:10096000A06B002803D000230561436170BD1830DF
:1009700000F07EF9A06300280CD00A4B012203602E
:10098000094B4360094B83600B2383810023026181
:100990004361E8E7064B00224221064800F024F9B3
:1009A000000C00200E33CDAB34126DE6ECDE0500FA
:1009B00078F3000890F30008184B70B51D68AC6B15
:1009C000002C0ED020696169154A164BFFF7C6FD51
:1009D0000122002312184B41580040082261636134
:1009E00070BD182000F044F9041EA8630FD00E4B10
:1009F000012203600D4B43600D4B83600B23838109
:100A000000230261436107480A4A064BE6E70A4BA6
:100A100000224E21094800F0E7F8C046000C0020F3
:100A20002D7F954C2DF451580E33CDAB34126DE61D
:100A3000ECDE05002E7F954C78F3000890F300085B
:100A400010B58021040000F07DF96064002807D013
:100A500002000023803208C09042FCD1002010BD6B
:100A600001204042FBE7C046426C10B50023002A3B
:100A700001D0180010BDFFF7E3FF0300F9E7C046FF
:100A800070B505000C0016001F2907D8436C002B19
:100A900009D0A4001B1918681E6070BD16230360DE
:100AA00001204042F9E7FFF7CBFF002801D16B6C32
:100AB000EFE701204042F0E770B505000C001F2968
:100AC00020D8436C002B0ED08A009B181A68002A8D
:100AD00009D0012A14D0511C0ED000212000196029
:100AE0009047002070BD280000F07AF82200010035
:100AF000280000F061F8F5E7162303600120F1E714
:100B00000020EFE71623036001204042EAE7C046D9
:100B100070B505000C001F291DD8436C002B10D0A8
:100B2000A2009B181A68002A09D0511C11D0012A72
:100B30000DD00021200019609047002070BD0120D9
:100B4000FCE7FFF77DFF002805D16B6CE8E7032089
:100B5000F4E70220F2E701204042EFE710B5034B33
:100B600001001868FFF7A8FF10BDC046000C002068
:100B700010B5044B0A001B6801001800FFF780FF46
:100B800010BDC046000C0020054B10B51B680020AE
:100B90005A6C002A00D010BD1800FFF751FFFAE789
:100BA000000C002010B5034B01001868FFF7B0FFE0
:100BB00010BDC046000C0020002370B5074C050096
:100BC0000800110023600CF0B3FF431C00D070BD7F
:100BD0002368002BFBD02B60F9E7C046582C00207F
:100BE00010B50CF0ADFF10BD30B51C000A4B050070
:100BF0001B6885B0D868002A0AD0084B029201937E
:100C000000912B002200064900F020F8FFF7CCFDF0
:100C1000044B1A00F2E7C046000C0020C4F30008A1
:100C2000D4F30008D0F30008130010B50022FFF73A
:100C3000DBFFC0460CB400B583B004AB04CB01931A
:100C400000F01EF903B008BC02B018470EB400B59E
:100C500082B003AB0100054804CB0068019300F0AB
:100C60000FF902B008BC03B01847C046000C0020C2
:100C700010B5034B0100186800F064F810BDC046C1
:100C8000000C002010B5034B0100186800F004F8B8
:100C900010BDC046000C002070B50500002915D01D
:100CA0000C1F2368002B27DB280001F03DFA244BA2
:100CB0001A68002A05D0A2420CD921686018824225
:100CC00024D0626028001C6001F030FA70BDA3429D
:100CD00003D81A005368002BF9D111685018A042AC
:100CE0001BD027D821686018834207D06360546006
:100CF000280001F01BFAE9E7E418D5E718685B68FB
:100D000084466144216063605460F1E71068526872
:100D10008446614421606260D4E720680918501855
:100D200011608342E4D118685B68844661441160B5
:100D30005360DDE70C2328002B6001F0F7F9C5E7CD
:100D400000110020F8B50323CD1C9D430835060093
:100D50000C2D2AD20C25A94229D8300001F0E4F943
:100D60002A4F3A68002A0AD013685B1B04D441E07A
:100D700023685B1B1FD522005468002CF8D17B68C8
:100D8000002B3DD0290030000CF0AEFE431C2AD0D1
:100D90000323C41C9C43A04205D0211A30000CF050
:100DA000A3FE431C1FD0256010E0002DD3DA0C23D6
:100DB00000203360F8BD0B2B05D86368A2421DD01C
:100DC000536003E014002360E4182560300001F054
:100DD000ADF9200007220B30231D9043C21AE9D041
:100DE0001B1AA350E6E70C233000336001F09EF994
:100DF0000020DFE70B2BE5D8140053683B60E5E7E4
:100E0000002130000CF070FE7860BBE7001100207C
:100E1000936810B5013B9360002B04DA9469A342F8
:100E200007DB0A2905D01368581C106008001970E8
:100E300010BD00F09BFBFBE7F8B506000F00002B90
:100E40000DD01400D51802E00134AC4207D021784F
:100E50003A003000FFF7DCFF431CF5D1F8BD00205D
:100E6000FCE7C046936810B51400002B02D10020A7
:100E7000536010BD00F072FE0023A3606360F8E7CA
:100E8000F0B54E46DE4657464546E0B5A1B0049063
:100E9000039191461C00002804D083690593002B20
:100EA00000D1BEE0AD4B039A9A4200D1C0E0AC4BFA
:100EB000039A9A4200D1CDE0AA4B039A9A4200D1FC
:100EC00047E1039A93891B0700D4B9E0136905939E
:100ED000002B00D1B4E0002308AD6B6120336B76AA
:100EE0001033AB762F3B98464B461B7807949E4FAA
:100EF000002B00D189E0252B00D125E14E4603E0EF
:100F0000252B00D1AAE026007378741C002BF7D1A2
:100F10004B46E31A9A4678D053464A4603990498BA
:100F2000FFF78AFF431C70D06B6953446B61737881
:100F3000002B6AD00122002352426A6044320134FD
:100F40002B60EB60AB60AB54AB6506E04346C01B67
:100F5000834034002A6813432B602178052238002F
:100F600001F044F8661C0028F0D12B68B246DA067E
:100F700002D543222021A9541A0702D543222B214E
:100F8000A95421782A2900D06EE0079A111D126811
:100F90000791002A00DABAE0EA606178A61C2E29DF
:100FA00000D17AE0714B03221800994601F01EF837
:100FB000002800D18FE04B46C01A402383402A68A6
:100FC000317813432B600622731C694899462976B1
:100FD00001F00CF8002800D188E0664B002B00D10E
:100FE0008EE007AB0093039A634B2900049800E05E
:100FF00000BF83465B46013307D06B695B446B617E
:101000004B461B78002B00D075E7039B9B895B0642
:101010001DD4686921B03CBC90469946A246AB46B7
:10102000F0BD00F073FD4D4B039A9A4200D03EE7AD
:10103000049B5B680393039A93891B0700D545E7DC
:101040000399049800F008FB002800D143E7012031
:101050004042DFE7049B9B68039332E74B46E31A69
:101060009A4600D166E757E70A00303AA246092AB5
:1010700095D8EB68180001E03400013683001B1896
:1010800031785B0098180A00303A092AF4D9B24640
:10109000E860A61C2E2900D084E7534659782A29F7
:1010A0003BD1079B1A1D079252469178D61C02220B
:1010B00094461B68E2446B60002B00DB72E701235F
:1010C0005B426B60294B03221800994600F08EFFAB
:1010D000002800D06FE7B1465646317806222448F2
:1010E000297600F083FF002800D076E707AB009355
:1010F000039A214B2900049800F0E4F8834679E72D
:101100000722079B073393430833079375E752423F
:10111000EA60022213432B603FE70A000023303AC3
:101120006B601800092A01D910E01E0083001B180B
:1011300071785B0098180A00303A731C092AF4D9B8
:101140009A46023668602DE74C46F3E6B246013611
:1011500028E7049BDB680393B3E6C04694DC0008F1
:1011600074DC000854DC000804F400080CF40008E7
:1011700010F4000800000000390E000810B504004B
:101180001300034A10680A002100FFF779FE10BD22
:10119000000C0020F0B54F464646D646C0B51F00AD
:1011A000089B914698468A680B6906000C0093429A
:1011B00000DA13004A4613604322A25C002A02D0E0
:1011C0004A460133136023689A065AD54B461B687A
:1011D00006209A1C4B461A6023681900184208D151
:1011E000E16800258A1A19218A461900A244002ABA
:1011F0003FDC4323E35C5A1E93418A060AD5302024
:10120000E1184331087045215A1C615CA218433231
:10121000023311702200390043323000C047431CB2
:1012200019D006232068A26821690340042B30D01E
:101230008A423ADD00239946521A91441A34002515
:1012400002E001354D4530DA01232200390030003B
:10125000C047431CF5D1012040421CBC9046994632
:10126000A246F0BD4B46E2681B680135D31AAB427B
:1012700020DD0123524639003000C047431CF1D124
:10128000E9E706221A4212D04323E35C5A1E934137
:10129000C0E74B46E0681B68C31AD843C017184024
:1012A00081468A42C8DC002BC8DC0020D5E74A46CC
:1012B000126895E743232168E35C5A1E93418A062E
:1012C0009DD4A7E7F0B557469A4643239C464E4621
:1012D0004546DE468C446346E0B587B003930B7EFB
:1012E000914680460C00109A6E2B00D1D8E000D8B1
:1012F00071E0732B00D11AE100D881E0752B00D189
:10130000FFE0782B00D00BE10B687820452160547A
:1013100094498B46116840C91160180603D45806D9
:1013200001D53604360CDA0702D520221343236098
:101330001027002E00D1C2E043230022E25463684C
:10134000A360002B00DAC5E00422216891432160EC
:10135000002E00D083E0002B00D0BDE0039D082FBD
:1013600000D18CE0039B5B1B2361534605AA0093CD
:1013700021004B464046FFF70DFF431C22D0236956
:101380002A0049464046D047431C1BD02268059896
:10139000E368920700D47FE01A1A002A00DC7BE0A1
:1013A00026000025193606E0E368059801351A1A6B
:1013B000AA4200DC70E00123320049464046D04793
:1013C000431CF1D10120404207B03CBC90469946F5
:1013D000A246AB46F0BD632B00D184E01FD8002BA2
:1013E00069D0582B00D09BE0452163545E492368A7
:1013F0008B46116840C91160180600D48FE792E748
:101400006F2B7ED0702B00D08AE0202309687820D3
:101410000B4345212360605452498B467AE7642B85
:1014200001D0692B7CD111682368081D10601D064E
:101430004AD50A681600002A03DB4B4B0A279B4655
:101440007DE743222D21A15462687642A260002AE2
:1014500002DB042293432360434B0A279B46039DF0
:1014600000E0060039003000FEF75CFF5B465B5C85
:10147000013D2B70BE42F4D2082F00D072E72368E2
:10148000DB0700D46EE763682269934200DD69E7F9
:101490003023013D2B7065E7984295DA180093E7F9
:1014A000136809681D1D606915601B680E0601D46C
:1014B00049064BD418600023039D236155E7202380
:1014C00022689A43226037E75D06B2D500228E5E1D
:1014D0003200B0E7002EC2D15B4625001A784223C5
:1014E0004235E2543BE713682500191D11601A6864
:1014F0004223E254413B4235236143230022E2541C
:1015000033E7116820680D1D1560060601D44006FA
:101510001ED40E686F2B1DD0134B0A279B460BE77A
:1015200042222500A354012342352361E5E71368D5
:10153000191D11601D6862680021280000F056FD29
:1015400000280BD0401B60602061D6E71880B2E70E
:101550000E88DFE7044B08279B46EDE660682061B4
:10156000CBE7C0462CF4000818F40008F8B50500D5
:101570000E001400002802D08369002B29D02D4BC7
:101580009C422BD02C4B9C4246D02C4B9C424ED0A4
:10159000A369A360A3891B0726D52369002B23D049
:1015A000FF22F7B2616916402268D31A99422ADDF8
:1015B0000133A1680139A160511C21601770626973
:1015C0009A422BD0A389DB0701D50A2E26D0300002
:1015D000F8BD00F09BFA174B9C42D3D16C68A3690D
:1015E000A360A3891B07D8D42100280000F034F899
:1015F000002819D1FF222369F7B2616916402268D9
:10160000D31A9942D4DC2100280000F045F90028C3
:101610000AD122680123CCE7AC68B9E72100280091
:1016200000F03AF90028D2D001267642CFE7EC68E4
:10163000AEE7C04694DC000874DC000854DC000807
:1016400010B5044B0A001B6801001800FFF78EFF5D
:1016500010BDC046000C00203E4B70B51D68060052
:101660000C00002D02D0AB69002B1BD03A4B9C42E2
:101670001ED03A4B9C424CD0394B9C4260D00C233C
:10168000E25E93B2190719D52169002921D0DA0742
:101690002ED50023A360636900205B42A36100296B
:1016A0002ED070BD280000F031FA2B4B9C42E0D1C7
:1016B0006C680C23E25E93B21907E5D4D90641D5D4
:1016C0005B0728D4216908231343A3819BB2002917
:1016D000DDD1A0228020920080001A408242D6D024
:1016E0002100300000F03AFCA3892169DA07D0D448
:1016F00000229B0700D46269A26000200029D0D19B
:101700000C22A35E1A06CCD540221343A3810138D4
:10171000C7E7AC68B3E7616B00290AD02300443304
:10172000994204D03000FFF7B7FA0C23E25E0023A1
:10173000636324239A430023216963602160C2E725
:10174000EC689CE709233360402301201A43A281FF
:101750004042A6E7000C002094DC000874DC00087E
:1017600054DC0008F0B5C64600B58B8980460C00F5
:101770001A0745D44A68002A63DDE56A002D3BD08C
:1017800042464146166800220A60216ADA045CD4A7
:10179000012300224046A847431C61D0A389E56A83
:1017A000216A5B0706D56368C01A636B002B01D002
:1017B000236CC01A002302004046A847431C46D1B0
:1017C00043461B680C21625E002B56D01D2B01D0B6
:1017D000162B5DD100236360236923604346616B50
:1017E0001E60002908D023004433994202D04046AD
:1017F000FFF752FA00236363002004BC9046F0BD5B
:101800000E69002EF8D00A680E60951B00229B0717
:1018100000D14A69A260002D04DCEDE736182D1ACC
:10182000002DE9DD2B003200216A4046A76AB84747
:101830000028F3DC40220120A38940421343A38106
:10184000DBE70A6C002A98DCD6E7606DA9E7002385
:10185000636023692360A389DB04BFD56065BDE7AE
:1018600043461B68002B99D01D2B0DD0162B0BD097
:101870004022A3891343A381BFE7636023692360E8
:10188000D304ABD56065A9E7434600201E60B4E7EA
:1018900040231A43A281B0E70B6970B505000C0024
:1018A000002B16D0002802D08369002B15D00E4BD8
:1018B0009C4210D00D4B9C4212D00D4B9C4211D03B
:1018C0000C22A35E002B04D021002800FFF74AFF62
:1018D00000E0002070BD6C68F2E700F017F9E6E761
:1018E000AC68EDE7EC68EBE794DC000874DC00081A
:1018F00054DC000810B5011E04D0054B1868FFF732
:10190000CBFF10BD034B0449186800F0D9FAF8E783
:10191000000C002050DC00089918000800207047D7
:1019200010B5024900F0CCFA10BDC0469918000865
:101930000020704770B568244A1E54430E002100F1
:101940007431FFF7FFF9051E09D000232200036060
:1019500046600C30A86068320021FEF7A9FF28001D
:1019600070BDC0461E4B70B51D680600AB69002BEC
:1019700027D048356B68AC68013B03D51CE0683460
:10198000013B19D30C21625E002AF8D1002520000A
:10199000144B656625606560A560E360256165613F
:1019A000A561082200215C30FEF782FF6563A56314
:1019B000A564E564200070BD2C68002C05D02500CE
:1019C000D8E7280000F010F8D3E704213000FFF733
:1019D000B1FF041E2860F2D10C233360EAE7C04651
:1019E00050DC00080100FFFFF0B5D6464F464646E2
:1019F000384BC0B5836200238364C3640365364BF0
:101A000082B01B6805000193984260D02800FFF760
:101A1000A9FF68602800FFF7A5FFA8602800FFF76E
:101A2000A1FF6E680024E86004233000746634600F
:101A30007460B460F36034617461B46108220021A1
:101A40005C30FEF735FF254B254F9A467362254BD8
:101A500037639946B362244B3662F362AE689846A8
:101A60003000224B746634607460B460F36034619B
:101A70007461B461082200215C30FEF719FF5346FF
:101A800073624B46B36243463763F3623662EE6875
:101A9000174B3000F360746634607460B460346176
:101AA0007461B461082200215C30FEF701FF5346E7
:101AB00073624B46B3624346F36201233662376377
:101AC000AB6102B01CBC90469946A246F0BD012312
:101AD00083619BE72119000850DC00088121000880
:101AE00019220008AD210008ED21000809000100BD
:101AF0001200020010B5034B0349186800F0E0F92A
:101B000010BDC04650DC000899180008836910B564
:101B1000002B01D1FFF768FF10BDC0467047C046DB
:101B20007047C0467047C0467047C04610B5034B6B
:101B30000349186800F0A2F910BDC046000C00204F
:101B40001D19000810B5034B0349186800F096F9F9
:101B500010BDC046000C002031190008F0B5454604
:101B6000DE4657464E46E0B5936883B000900C00C1
:101B70009046002B6DD08B891A0700D471E00A695A
:101B8000002A00D16DE0424616689A0700D475E03D
:101B9000A36A00279A46B54B00259946216A002D75
:101BA00016D02B004D4500D9B04B3A000098D047D5
:101BB000002800DCD5E043469B683F182D1A181A10
:101BC0004346986045D0A36A216A9A46002DE8D121
:101BD000376875680836E2E74B461B689A464B46FD
:101BE0005F6808239C46E144002FF5D03A000A21A3
:101BF000504600F0FBF9002800D1CEE053460130FA
:101C0000C61A3300BB469F4200D99B462068226912
:101C10006369904204D9A2689D18AB4500DD92E04B
:101C20005B4500DDF9E0A56A5246216A0098A847A5
:101C3000051E00DC95E0761B0120002E00D1E4E0BB
:101C400043469B68AA447F1B5D1B43469D6000D0B2
:101C500095E0002003B03CBC90469946A246AB46B6
:101C6000F0BD21000098FFF7F7FC002800D0F9E054
:101C70004246A38916689A0700D589E7DA0778D41F
:101C8000002291468022920000279346A568206892
:101C9000002F53D05A46134200D181E0AA46BD42DC
:101CA00000D9AFE09022D20013422ED02169451A0C
:101CB000AC466069019542001218D00F8218781C5A
:101CC000521060449246904201D9824602005B0560
:101CD00000D4AFE011000098FFF734F8051E00D1E2
:101CE000BAE0019A2169FEF78FFDA389604A13408B
:101CF00080221343A3815246019B2561E818BA460E
:101D00003D00D31A20606261A3605246494600F04C
:101D1000ADF9A3685D1BA5603D000027236853440F
:101D2000236043469B68A9445D1B43469D6000D1E8
:101D30008FE7A5682068A389002FABD13268776848
:101D400091460836A4E751462A0000F08FF923682F
:101D500021005B1923600098FFF79EFD002800D149
:101D600069E70C22A35E402201201343A381404275
:101D700070E70023B14600209A4600271E00002F7E
:101D800000D129E7002800D03BE73A000A2150465D
:101D900000F02CF9002800D030E77B1C1E0031E752
:101DA0002369834217D363699A46BB4213D8314BE8
:101DB00038009F4200D930485146FEF7B7FA5346E3
:101DC0004A464343216A0098A56AA8470028C8DD0F
:101DD00005007F1BA5E7BD4200D93D002A0049460A
:101DE00000F044F9A36822685B1B5219A3602260CB
:101DF000002BEED121000098FFF74EFD0028B0D156
:101E00007F1B8EE73D00BA467FE721000098FFF771
:101E100043FD002800D113E7A3E75A46514600F0DE
:101E200025F95A46A3685D469B1AA36023685B4464
:101E3000236000E7009800F07BF9051E00D05AE708
:101E4000009D21692800FEF727FF8022A389934384
:101E5000743A1BB22A6086E70C23009A13600C22A6
:101E6000A35E80E701204042F4E6C04600FCFF7F0D
:101E70007FFBFFFFFEFFFF7FFFFFFF7FF0B5C64642
:101E8000483000B5884607000026002813D07B683C
:101E9000BC685D1E0CD4A389012B06D90E22A35E5B
:101EA000013302D02000C04706436834013DF2D21E
:101EB0003F68002FEBD1300004BC9046F0BDC04617
:101EC000F8B54746CE4680B5070048378046894674
:101ED0000026002F14D07B68BC685D1E0DD4A3893A
:101EE000012B07D90E22A35E013303D02100404607
:101EF000C84706436834013DF1D23F68002FEAD15C
:101F000030000CBC90469946F8BDC04670B50C0038
:101F10001D000E23C95E96B01600002914DB6A4628
:101F20000BF0EFFD00280FDBF022019B12021340A3
:101F3000094A944663445A4253412B608023DB0094
:101F40003360002016B070BD00232B60A3891B06F0
:101F5000F4D540233360F4E700E0FFFF70B58B89D0
:101F600082B006000C009B0707D52300473323608F
:101F700023610123636102B070BD01AB6A46FFF7C4
:101F8000C5FF009905003000FEF7DCFE002810D0E8
:101F90008022154BB362A38920601343009A1BB2C1
:101FA0006261019AA3812061002A0CD12B43A38195
:101FB000E1E70C22A35E9A05DDD4032293430222BB
:101FC0001343A381D1E70E23E15E30000BF0A5FDA2
:101FD000002802D10C22A35EE8E70322A3899343E1
:101FE000012213431BB2E1E72119000870B5CDB2FD
:101FF000830734D0531E002A1BD00278AA4219D07E
:10200000032404E0013B14D30278AA4212D0013029
:102010002042F7D1032B0ED8002B0AD00278AA4217
:1020200008D0C31802E00278AA4203D001308342EC
:10203000F9D1002070BDFF220C06240C1140214371
:102040000C04084E0C430268074962405118914342
:102050003142E3D1043B0430032BF4D8DCE7130016
:10206000D8E7C04680808080FFFEFEFEF0B5C64601
:1020700000B588420CD98B18984209D2531E002A09
:1020800003D0CA5CC254013BFBD204BC9046F0BDF5
:102090000F2A0CD80500561E002AF6D0002300E0B7
:1020A0002300CA5C5C1CEA549E42F9D1EDE70B00A8
:1020B000032603431E400C000300002E2ED1150002
:1020C000103D2D09AC462D01A846804400E02B00B0
:1020D0001D00276810351F6067685F60A7689F60F4
:1020E000E7681034DF604345F1D165460F230C24C7
:1020F00001352D01491913404519144211D08C594D
:10210000AC5104369C1B032CF9D80324043B9B08D8
:1021100001339B00ED18C9182240BCE7561E05008C
:10212000BCE71A00B7E7C0467047C0467047C046D4
:10213000F8B507000C00150000291BD0002A15D0A7
:1021400000F070F82600A84201D33000F8BD290045
:102150003800FEF7F7FD061EF7D021002A00FEF733
:1021600053FB21003800FEF797FDEEE7FEF794FDE4
:102170000026EAE71100FEF7E5FD0600E5E7C046A8
:1021800070B50C000E25495F0BF0A3FC002803DBA3
:10219000636D1B18636570BDA389024A1340A38158
:1021A000F9E7C046FFEFFFFF00207047F8B51600C3
:1021B0001F000C228B5E0C0005000E22895EDA05E2
:1021C00008D4094A28001340A38132003B000BF0D9
:1021D00087FCF8BD002202230BF080FC0C22A35EDA
:1021E0000E22A15EEDE7C046FFEFFFFF70B50C00C9
:1021F0000E25495F0BF072FC431C06D08023A28998
:102200005B011343A381606570BDA389014A13403C
:10221000A381F9E7FFEFFFFF10B50E23C95E0BF0B6
:1022200061FC10BD0B1F1B68181F002B00DB7047E3
:102230000B58C018FBE7C0460949421C0B785343B2
:102240009BB21B0A0B7007490B7853439BB21B0AC6
:102250000B70054B1878504380B2000A1870704715
:10226000ED280020EE280020EC28002010B50C21DD
:10227000014801F0A3FB10BD2911002010B5094A47
:102280001378002809D0042B06D8013313700648B0
:102290001378837003F0D5FA10BD002BFCD0013BFE
:1022A000F4E7C046660C00207429002010B50B4AE4
:1022B0001378042B01D9022313701378002809D056
:1022C000002B01D0013B137005481378C37003F055
:1022D000B8FA10BD032BF7D80133F4E7680C0020DF
:1022E0007429002010B5184B184A1C781178184B27
:1022F000002C09D000291AD00021117019708842D1
:1023000017D11978013916E000280BD0002910D018
:1023100014701C700F4812781B780271437103F01F
:1023200090FA10BD0029ECD0107007210AE00028B7
:10233000E7D019780131C9B219700729EAD901210A
:10234000117000211970E5E74D110020670C002085
:10235000281100207429002010B50D4A1378002898
:102360000FD00133DBB2042B09D800211370094BC5
:10237000094819701378437003F063FA10BD002305
:10238000F3E7002B01D0013BEFE70423EDE7C04664
:102390004D1100204F1100207429002010B5002499
:1023A000054B8008890892080134587019709A709A
:1023B0000333062CF8D110BD2911002010B50624D6
:1023C000054B8008890892080134D87499741A75ED
:1023D00003330C2CF8D110BD29110020F8B51F4B88
:1023E0001A78002A2CD000221A7008F0DDFC1C4B51
:1023F0001C4A1860012313701B4B1C4CDB791C4DCD
:102400001C4EA22B21D1223B23702B70144F337012
:10241000386808F00DFDFA214900FDF7FDFEC307FD
:1024200018D4327829782078FFF7C8FF386808F088
:10243000FFFC114B984207D900230A4A137003E0AE
:10244000084B1B78002BD7D1F8BD002323702B70CD
:102450008033DBE7002211001000E5E70C120020BA
:1024600064110020601100206A0C0020ED2800207B
:10247000EE280020EC280020B70B0000F8B51F4B19
:102480001A78002A2DD000221A7008F08DFC1C4BFF
:102490001C4A1860012313701B4B1C4C9B791C4D6C
:1024A0001C4E002B22D00023802223702A70144F50
:1024B0003370386808F0BCFCFA214900FDF7ACFE27
:1024C000C30717D4327829782078FFF777FF386868
:1024D00008F0AEFC104B984207D90023094A13704C
:1024E00003E0084B1B78002BD6D1F8BD80222B705F
:1024F0002270DCE7002211001000E6E70B1200203A
:102500005C1100205811002074290020ED280020C3
:10251000EE280020EC280020B70B0000094B10B576
:102520001A780224042A09D108F03AFA044204D0A5
:10253000802200201100FFF731FF10BD5B7923429C
:10254000FBD0F5E76A0C0020F7B5274B1878002878
:1025500005D12C23254AFF3312889A423FD82449BB
:10256000244C0A78244D8023244E002A2CD122703A
:102570002B703270002821D0FA22CB780192012BE7
:1025800002D0FA235B0001931D4F386808F050FC1D
:10259000019B5B08984203D9002323702B70337092
:1025A000386808F045FC019B984207D30E4B0E4A51
:1025B0001B78013B137008F0F7FB386032782978FC
:1025C0002078FFF7EBFE0EE0042A04D123702B7075
:1025D00000233370CEE7002222702A70F9E708F05A
:1025E000E3FB074B1860F7BD1E12002020120020ED
:1025F0006A0C0020ED280020EE280020EC280020A6
:102600002411002070B505000F2857D9322859D958
:102610000024502383426441FF266442E4B2002335
:10262000320021001D2005F085FB0A2D45D900232D
:10263000320021001C2005F07DFB142D3DD9002324
:10264000320021001B2005F075FB1E2D35D900231B
:10265000320021001A2005F06DFB282D2DD9002312
:1026600032002100192005F065FB322D25D9002309
:1026700032002100182005F05DFB3C2D1DD9002300
:1026800032002100172005F055FB462D15D90023F7
:1026900032002100162005F04DFB502D0DD90023EE
:1026A00032002100152005F045FB5A2D05D90023E5
:1026B00032002100142005F03DFB70BD0028FCD045
:1026C000002600E04026FF24A9E7000010B5024BD9
:1026D0009879FFF797FF10BD6A0C002070B50F289E
:1026E0000DD9142826D9282828D93C282AD9502899
:1026F0002CD95F282ED980220021052302E0002258
:10270000802113000024184826000500890892083B
:1027100021350134E4B269702A70AE70033DA342E2
:10272000F7D2002101339A009A1A21328218062B1F
:1027300013D170BD402280210123E3E74022802194
:102740000223DFE7402280210323DBE740228021B0
:102750000423D7E740228021CFE701335170117065
:102760009170DBB2033AE2E729110020F8B54E4B35
:102770004E4E1A784E4C4F4D4F4F002A1FD000221C
:102780001A7008F011FB4D4B186023793370A37950
:102790002B7008F009FB494B3860186808F048FBBB
:1027A000474B984204D90023464A1370464A137097
:1027B00032780123032A5CD1434A13701BE022794B
:1027C00033789A42E5D0386808F032FBFA239B0050
:1027D000984210D9012332781A420AD122791A423A
:1027E00007D0384A1370384A137008F0DDFA334BBB
:1027F000186023793370A2792B78344E9A423DD0F9
:10280000306808F015FBFA239B00984201D9A379A0
:102810002B702F4B1B78002B03D12A4B1B78002BDE
:1028200026D0294B1B78002B39D02A4D286808F078
:10283000FFFA294C0A2808D908F0B6FA237828604C
:102840005A1ED1B2120627D421708023234D244E64
:102850002B70403B33700023224F234A3B70237878
:10286000D05CFFF7E9FC3A7831782878FFF7A6FDCD
:10287000F8BD1A42BFD06423A371BCE708F094FAF4
:102880002B7830600E2BC4D801220E4B1A7008F042
:102890008BFA0A4B1860BCE77F332370D5E72878A2
:1028A000FFF71CFFE4E7C046650C00202011002064
:1028B0006A0C00200C1100201C11002018110020AF
:1028C00088130000640C002014110020081100205F
:1028D000041200201011002022110020ED280020F9
:1028E000EE280020EC280020B4DC000870B580241D
:1028F0000423214DA4002B832100280001220AF08B
:1029000028FC2800012240210AF023FC6C83C13CF2
:10291000FF3C6C831026032532003100300006F0A6
:1029200073F8220021002000FFF738FD220021006B
:102930002000FFF743FD05F0F5F9FFF797FC0F487E
:1029400009F089FB00221100100006F05DF800225A
:1029500011001000FFF722FD002210001100FFF708
:102960002DFD013D05F0DEF9FFF780FC034809F07D
:1029700072FB002DD0D170BD00080048204E000031
:10298000F8B5032300241B4E1B4D33701B4A013B3B
:102990002B70013B13701A4B1A4A1B4F1C701B4BB8
:1029A00014703C701C7008F0FFF9194B1860194B3B
:1029B0001C7006F089FC0C2006F0DFFC972006F066
:1029C00004FEFF214C22080006F03FFDA52312481B
:1029D0000A4A03703B784370337883702B78C37056
:1029E0001378084A0371137843710123837102F04D
:1029F00028FFF8BD660C0020680C0020670C002042
:102A00004F110020281100204D1100204E110020F0
:102A1000501100200412002074290020042370B5F6
:102A2000564C012223832000402180250AF091FB8F
:102A30004023AD0063832900200001220AF089FBB6
:102A4000002265831100FF2005F0DEFF05F06AF922
:102A50000022FF201100FFF7A1FC0022484C1100CA
:102A6000FF20FFF7ABFCFFF701FC200009F0F3FAB1
:102A70000022FF21100005F0C7FF05F053F90022E6
:102A8000FF211000FFF78AFC0022FF211000FFF752
:102A900095FCFFF7EBFB200009F0DDFA0021FF2297
:102AA000080005F0B1FF05F03DF90021FF22080004
:102AB000FFF774FC0021FF220800FFF77FFCFFF7FF
:102AC000D5FB200009F0C7FA80221100100005F0A4
:102AD0009BFF05F027F9802211001000FFF75EFC34
:102AE000802211001000FFF769FCFFF7BFFB2000F8
:102AF00009F0B1FA80210022080005F085FF05F0F9
:102B000011F9802100220800FFF748FC80210022F3
:102B10000800FFF753FCFFF7A9FB200009F09BFA20
:102B200080220021100005F06FFF05F0FBF88022E5
:102B300000211000FFF732FC802200211000FFF777
:102B40003DFCFFF793FB200009F085FA802200206E
:102B5000110005F059FF05F0E5F880220020110072
:102B6000FFF71CFC802200201100FFF727FCFFF775
:102B70007DFB200009F06FFA70BDC04600080048D8
:102B800050C30000F7B5C34D286808F051F9C24C96
:102B900023781B18237008F007F9C04B28601878B9
:102BA000042860D8BE4ABF4B1278FDF72BFB050006
:102BB00097002C01DE009D019A5C23789A4252D244
:102BC0009B1ADBB2142B64D8B749B84A0978237032
:102BD0001378002962D0D91EC9B2DF295BD81170E1
:102BE000137800220326B24D0092AF4AB14C1278FE
:102BF000B149002A5AD030005843B04A875C1218B5
:102C000027701C005078183408709178AC4AE4B2F0
:102C10001170DF2C01D93833DCB2AA4BAA4A1B78D9
:102C2000D05CFFF709FBA34B2A781878A24B7243BC
:102C30001978A34B89081B7880089B080193A34B44
:102C40009F18D1543A007870019F97706A780235C6
:102C500072439F18D154009B019A01337870BA7067
:102C60000093062B20D1FFF781FDFFF707FCFFF74C
:102C7000B5FBFFF753FCFFF767FC954C206808F0A5
:102C8000D7F81E2804D908F08FF82060FFF7EEFA75
:102C9000F7BD002398E7233B1370A1E7991EC9B243
:102CA0006F299CD96E33F7E723009EE7894A107895
:102CB000894A7043875C121827701C0050780C34C6
:102CC000087091787E4AE4B211706F2C01D9643B90
:102CD000DCB2824B185DFFF7AFFA9EE79B185A797A
:102CE00023789A42BFD29B1ADBB2142B38D82370B8
:102CF0006E4B1A78511CC9B2DF2933D819700324DE
:102D00001A786E4B6243D15C9B185A786C4D9B7855
:102D1000694E2B706B4B32701B786B4A654FD05CE1
:102D20003970FFF789FA2A7800253F783678604BAA
:102D30006649BF08B608920800941878009C0135CF
:102D400060430C1867704654A2705878009C023398
:102D500060430C1867704654A270062DEDD182E7CF
:102D60000023C4E721321A70C9E79B18DA7B237865
:102D70009A4200D377E79B1ADBB2142B3ED8584A0D
:102D800023701378591EC8B2090639D41070032471
:102D9000504B4B4D1978504B6143C85C5B185978C8
:102DA0009B78444F2B7013784E4A434E3870D05C5A
:102DB0003170FFF741FA434B434A1B78D05CFFF771
:102DC0003BFA2A7800253F783678394B3F49BF08CF
:102DD000B608920800941878009C013560430C18DE
:102DE00067704654A2705878009C023360430C18F8
:102DF00067704654A270062DEDD134E70023BEE77C
:102E00007F331370C3E79B189A7A23789A4200D3D2
:102E100029E79B1ADBB2142B3AD82370234B1A787C
:102E2000072A01D900221A7000250326204C294BBD
:102E3000204F1A78284B7243D15C9B185A7839700E
:102E40001D499B780A701E4A013513701D4B1E4A9E
:102E50001B78D05CFFF7F0F9174B21781878184BE6
:102E600071431B78194A9B080093800853188854B3
:102E700000993F7899706178BF0871435F708854FA
:102E80005318009A5F709A700234062DCFD1EAE68B
:102E90000023C2E7501100204E1100204D110020E8
:102EA000680C0020E1E30008670C00204F110020AF
:102EB000CFE30008ED280020EE280020CFDD000839
:102EC000EC280020660C0020DBE30008291100201C
:102ED0005411002028110020B4DD0008FAE3000896
:102EE00021110020B4DC00089B181A7D23789A4237
:102EF00000D3B8E69B1ADBB20022142B1CD8237037
:102F00000E4B03251A700E4B0E491A700E4B0F48CC
:102F10001A70002213000C7801326C4306192354F6
:102F20004C7873706C43B370061973702354B3708C
:102F30000231062AEFD196E62270E1E7ED28002063
:102F4000EE280020CFE30008EC2800202911002003
:102F500070B5454C2378022B15D10122434B1A70D2
:102F60000023434A13706278042A11D922004832A0
:102F700010781A003F4EDDB2F15C854204D38A42DC
:102F800006D00523237070BD5218D2B20133F2E788
:102F9000230046331B78C92B15D008D8812B4AD083
:102FA000C72B0ED0002363702370A370EBE7F22BC6
:102FB00003D0F42BF6D1304B00E0304B01221A70D5
:102FC000F0E72F4BFAE722002E4B4932197812789E
:102FD000914220D100212C4A117022004A321278ED
:102FE000DA70032A07D122004B3212780731100021
:102FF000884300D15A71220021004C3212784D31A1
:103000001A710978642900D89971D20701D5642210
:103010009A711E4BD2E7DB78FE2BFAD01A4A13784E
:10302000042B05D9002313700122194B1A70F0E705
:1030300001331370EDE72100164D4931202228009D
:10304000FDF7E2FB2B79042B01D80E4A13706B7944
:10305000032B01D80B4A5370AB795A1E022A01D8B0
:10306000084A93700C4BA9E7EF2800209B11002021
:10307000CE11002038290020951100209611002043
:10308000971100206A0C0020931100209A11002053
:103090000A1200209D11002098110020802370B595
:1030A0000D000600124C5B006383052008F0D3FF7F
:1030B0003000A9B207F04CFF1E20684303003233F2
:1030C00013D00C4A002332300021FDF747FA0023C9
:1030D000094A80185941094A0023FDF71FFA08F0F0
:1030E000BAFF80235B00238370BD0120F7E7C04651
:1030F00000040048A08601003F420F0040420F003C
:1031000000234118884202D15A2058407047027863
:1031100001309B18DBB2F5E770B504000D00101EFE
:103120002ED0554A00230021FDF718FA0023534AF8
:1031300080185941FA2200239200FDF7EFF908F0B8
:103140008AFF3E2200214E48FDF7B2FB5A234D4E26
:103150007371B471C32C54D01CD8B12C38D011D891
:10316000812C00D175E00023474C48482370317A08
:103170000531FFF793FF002D00D070E0E02070BD17
:103180000120DCE7C02C2DD0C12CECD101233372FF
:10319000173324E0C92C1ED016D8C52C18D0C72C44
:1031A000E1D101223A4B0221DA701B78B2727372BC
:1031B0009B18F3720023374A31721380364AFD316F
:1031C0001170364A1370CEE70F34E4B2012CCAD81E
:1031D00001233372C7E7012333722D4B1B787372BF
:1031E000B372C0E702222A4BDA70013A327200222F
:1031F0001B787372B372274B1A80274BFF321A70F9
:10320000B1E701231121412273720E33B3723F33B0
:10321000F37227333373253B73731833B3735B181F
:10322000F3737274593B28323374B274B375093234
:103230003633F274F3753B3A243B32753376023AF7
:10324000053B1748317272757376FFF759FFB076F8
:1032500089E7022333721E33B372F37283E764206B
:1032600008F0F9FE2378013DEDB2002B00D085E790
:10327000002DF4D1E32082E7A0860100E7030000DF
:10328000F6280020EF2800209B110020F4280020C1
:103290006A0C0020221200209211002097110020B9
:1032A000F828002070B53C4C206807F0C1FDC72805
:1032B00037D907F079FD2060384C2278002A31D0C8
:1032C00000231026364D3748237008F0C4FE3648D8
:1032D0006E8308F0C0FE2E83334808F0BCFE334DE9
:1032E000334B29781A78042927D1002A07D00022E5
:1032F0001A70304B186807F03DFB00F06DFC00229F
:103300002D4B1A700122C9201100FFF705FF2B7801
:10331000042B06D0294A13780133DBB2042B35D8AD
:10332000137070BD264B19780029D8D01A700A2264
:10333000C0201100FFF7F0FED1E7022A06D00222DA
:103340001A7000F049FC002007F014FBEA781D49D0
:10335000032A0DD00B78092B07D90321164B1970BE
:103360000021194B1980194BCBE701330B70C9E7CA
:1033700000230B70104916480B701449038008781D
:103380000328BFD00A70104A1380BBE700231370D4
:1033900001332370C5E7C046C411002099110020F5
:1033A0000004004810270000881300006A0C002069
:1033B0000D120020181200201E120020CE11002035
:1033C0000A1200209211002020120020690C002017
:1033D00022120020134B70B51B781400002B1FD055
:1033E000114B1A78042A1BD0DB78032B18D10F4D10
:1033F0000F4E57336B71A871593B22003000EB71AF
:103400002C72FDF701FA21003000FFF779FE2D192B
:103410006872611D0748FFF741FE142008F01BFE8B
:1034200070BDC046071200206A0C0020EF28002063
:10343000F8280020F42800200022064B10B51A803E
:1034400007F042FB044902220880E320FFF7C2FF95
:1034500010BDC0461C1200209011002037B56846F0
:1034600003F022FB0022084B05251A806B46074C0F
:103470002A00591C2000FDF7C7F92A002100E0208E
:10348000FFF7A8FF37BDC0461C120020C81100205E
:103490000022064B10B51A8007F010FB04490222E7
:1034A0000880E420FFF796FF10BDC0461C120020E4
:1034B000D0110020F0B5644D85B02B78042B00D1DD
:1034C0008BE00122614B1A70614B1B787F2B08D96E
:1034D00002F00AF8040002F023F85E4B04431B6874
:1034E0005C70EB79A22B19D15A4B5B4C1D680822FA
:1034F00029002000FDF760F9002800D186E00023B4
:10350000564A29001380200008226B70FDF77CF9D1
:1035100008222100E120FFF75DFF5EE0A12B00D033
:1035200074E04C4B4E4E1D681022691C3000FDF7B4
:1035300043F900286AD00024484B32781C806B780D
:103540009A4202D0444A013413700122AB1C00930A
:1035500000231700434D01934149D300565C009965
:10356000DBB2097802934E400121083BDBB203969F
:10357000039E31420BD0009806780E4237D00226C7
:103580003548305C00282AD1334883553C0001334C
:1035900002984900DBB2C9B29842E9D1009B0132DE
:1035A000013300930135102AD6D1019B002B06D0A0
:1035B00001212D4BE22019702A49FFF70BFF002C47
:1035C00004D008222449E120FFF704FF214B1022F8
:1035D000196823480131FDF717F905B0F0BD013630
:1035E000082ECDD16E780E436E700197CFE702267C
:1035F0001948305C984203D1002417488455C5E728
:103600000136082EF4D16E788E43EDE7174C206812
:1036100007F00EFC6428E0D907F0C6FB0F4B2060D2
:103620001B88114CC82B0BD808220B49E120FFF74F
:10363000D1FE2378002BD0D010220A49E2206AE77D
:1036400000232370C9E7C0466A0C0020E010002068
:103650007E290020F00D0020881100201C1200207F
:1036600068110020D211002094110020C011002008
:1036700070B5012507F078FC124B041E0AD11A78A8
:10368000002A06D0187002230F4D2B70FFF760FC44
:103690006C7070BD0C4C1D7066783F2E09D907F018
:1036A0004DFC07F061FC0028E4D1143008F0D3FC95
:1036B000E0E7731C637007F041FCA41945342070E7
:1036C000EFE7C046CD110020EF280020E12010B523
:1036D000C00207F013FC01220B4B196891431960DB
:1036E000A021186849010143196019680A431A604A
:1036F000064B07499A680A409A60A022D968D2010D
:103700000A43DA6010BDC04600380140000400489A
:10371000FF0FFFFF70B50023FA260B24264D76001D
:103720002B70013CE4B2002C0ED014220021F220B8
:10373000FFF7F2FC300008F08EFCFFF799FFFFF76F
:1037400097FF2B78002BECD00023FA260B241B4D7F
:1037500076002B70013CE4B2002C0ED01422002124
:103760008120FFF7D9FC300008F075FCFFF780FFDF
:10377000FFF77EFF2B78002BECD00023FA260B24DA
:103780000F4D76002B70013CE4B2002C0ED01422B9
:103790000021C920FFF7C0FC300008F05CFCFFF7F7
:1037A00067FFFFF765FF2B78002BECD014220A216E
:1037B000C320FFF7B1FC70BD9611002098110020C6
:1037C0009A110020F8B54F4C206807F031FB3128E2
:1037D0005FD907F0E9FA20604B4C4C4E2378002B60
:1037E00058D0002323704A4B9B79002B1CD0052214
:1037F000484B1100DB78C120032B00D0F120464D4F
:10380000FFF78AFC01220421280009F0A2FC04230E
:103810000022402128006B8309F09BFC80210022BC
:103820008900280009F095FC012333703B4B1B886D
:10383000092B2BD804230027374D377001222B8307
:103840004021280009F085FC402380216B83012260
:103850008900280009F07DFC80239B006B830122F6
:103860003900F220FFF758FC2A4B1B78042B0DD1AE
:103870002B4D10372B6CC8203B432B6408F0EBFB1F
:103880002B6C2848BB432B6407F056FE2378002B93
:1038900003D0F8BD3378002BC8D13378002BF8D192
:1038A0001C4A117804290FD11E4A11781E4A052995
:1038B00008D113780133DBB21370132BE9D901233C
:1038C0002370E6E71370E4E7D278032A07D1174A9A
:1038D0001360124B1A88164B9A42F0D8D9E7154953
:1038E00015480D88854201D90B80E8E7042AD0D11C
:1038F0000E490A680132642A01D80A60C9E70B60E0
:10390000DDE7C046F4110020951100209C11002035
:10391000742900206A0C0020000800481C120020B6
:10392000005C0040D02B0020FC110020F81100208A
:103930009F8C000022120020DF2E0000802130B575
:10394000072301251C4A49002C009C40118320427A
:1039500019D00324C046C046C046C046C046C04633
:10396000013C002CF6D15183C046C046C046C0463B
:10397000C046C046C046C046C046C046C046C04617
:10398000013BE1D230BDC046C046C046C046C0463D
:10399000C046C046C046C046C046C046C0460324D6
:1039A0005183C046C046C046C046C046C046013CE2
:1039B000002CF6D1E4E7C04600080048F7B5060041
:1039C000019172B600240327019B9C420CD3E02393
:1039D0009B00C046C046C046C046C046C046013BEC
:1039E000002BF6D162B6F7BD3D0065437519287806
:1039F000FFF7A4FF6878FFF7A1FF0134A878FFF76D
:103A00009DFFE4B2E0E7000070B580251F4CAD00DB
:103A100020000122402109F09CFB29002000012206
:103A200009F097FB80264023760063836583184D59
:103A300031002000012209F08CFB28006683310050
:103A4000012209F086FB20222E832800110009F0B4
:103A500080FBF03E28000122102109F07AFB6E83E2
:103A60000C4808F0F8FA2E8320002022012109F0EA
:103A700070FB20002022022109F06BFB01220421AF
:103A8000200009F066FB0423238370BD0008004872
:103A9000000400488813000070B5434C206807F00C
:103AA000C7F963286ED907F07FF9404920600B7889
:103AB0003F4A002B67D0138801339BB213801D2B24
:103AC0001CD90023FA2506240B703A4BED001A7816
:103AD000394B1A705A709A70013CE4B2002C0DD028
:103AE00001220021C720FFF717FB280008F0B3FAD6
:103AF000FFF7BEFD314B1B78002BEDD03049314A2A
:103B00000B78002B4BD0138801339BB213801D2BF5
:103B100029D90023284C0B702378042B35D0002B97
:103B200003D001232370A37063700A22C020110008
:103B3000FFF7F2FA244808F08EFA0A22C520110095
:103B4000FFF7EAFA01F0E2FEFEF7D0FEFEF718FFFB
:103B5000E3791E4CA22B1AD1012001F0FAF87F2242
:103B60002378134023701A491A4A0B78002B18D077
:103B7000138801339BB213801D2B03D900230B70D4
:103B8000FEF74CFF70BD1380B8E70123CBE704209C
:103B900001F0DFF8802322785B421343E2E71380D1
:103BA000E1E71380EEE7C04614120020081200205F
:103BB00024120020261200206A0C002097110020F9
:103BC00006120020FE11002050C300007E290020B4
:103BD0000912002028120020F0B52C4C85B0257861
:103BE00001F0B4FC01F096FC01F066F88023284F48
:103BF00022785B4213430021202238682370FCF7AF
:103C000057FE386806F0D0FEFA207F26800008F0C4
:103C100022FA237820223340002138682370FCF7F1
:103C200047FE386806F0C0FEFA20800008F013FA5C
:103C30002378ED09ED0133402B432370154B1B789E
:103C4000042B16D0102200216846FCF731FE10220A
:103C50006946E220FFF7BEFBFA20800008F0FBF97E
:103C6000E12008226946FFF7B5FBFA20800008F042
:103C7000F2F9202200210848FCF71AFE0822002150
:103C80000648FCF715FE05B0F0BDC0467E290020B1
:103C9000F00D00206A0C002068110020881100201F
:103CA00070B50500042812D80024FFF795FF012203
:103CB0000A4B1D70DC700A4B1A700A4B042D07D199
:103CC0001C70094B186806F055FE084B1C8070BD2F
:103CD000022220001A7006F04DFEF8E76A0C002060
:103CE0000A1200200D1200201812002020120020BD
:103CF000F8B53B4E3B4C3378002B26D007F054F8F8
:103D0000394D206020220121280009F022FA2022CA
:103D10000221280009F01DFA01232C692A691C40A0
:103D2000DB181A4217D1314F314D3B78A34214D0E2
:103D3000FFF752FF00232F4A3C7013802E4A138056
:103D400019222A702D4A137004E0206807F070F8D9
:103D50001328D3D8F8BD1C43E5E72B78002B02D0FD
:103D6000013B2B70F6E7264D2B78E20722D5042085
:103D7000042B22D1EB79A20722D5A22B0DD0012052
:103D8000204B187000F0E5FFA2237F211E4AEB7143
:103D900013780B401370FFF71FFF184B187800289B
:103DA000D8D101221A702B783070042BD2D006F0B3
:103DB000E1FDCFE768789842DCD0FFF771FFD9E7E3
:103DC000A12BEAD001220F4B04201A7000F0C1FF92
:103DD000A1230D4AEB711178223BFF3B0B43D9E73E
:103DE000730C00200012002000080048720C002014
:103DF000FD1100201C1200202212002007120020BA
:103E00006A0C00200C1200207E290020F7B5002447
:103E100020220121284809F09CF92022022126486D
:103E200009F097F9270023000121234A1569126937
:103E30000D40491811400E00721E96410191F6B2D4
:103E4000BD4224D19E4200D0002401346420E4B25B
:103E500008F001F933000A2CE6D1184C2378002D24
:103E600017D00420042B17D1019AE379002A16D029
:103E7000A22B0BD0012000F06CFFA2237F21104A5F
:103E8000E37113780B401370FFF7A6FEF7BD2F0008
:103E9000DAE760789842E7D0FFF702FFE4E7A12B6A
:103EA000F4D0042000F055FFA123054AE3711178F6
:103EB000223BFF3B0B43E6E7000800486A0C00206A
:103EC0007E290020164B10B51A78164C002A08D00F
:103ED00000221A7006F068FF206006F051FD124BB8
:103EE0001860206806F0A4FF092817D906F05CFFC7
:103EF0002C210E4AFF31138820608B4201D80133F8
:103F000013800B4A0B4913888B4201D00133138075
:103F1000094A13888B4201D00133138010BDC0467B
:103F2000740C002010120020181200202012002013
:103F30001C120020FFFF000022120020F8B5184CD0
:103F4000200001F06EFC2378164F174E174DA52B5D
:103F500018D0FF214C22080005F077FAA523237022
:103F60003B78200063703378A3702B78E370104B9C
:103F70001B7823710F4B1B7863710123A37101F030
:103F800060FCF8BD63780A4A3B70A3783370E3782D
:103F90002B70237913706379064A1370F1E7C046DA
:103FA000742900204D110020660C0020680C0020B0
:103FB000670C0020281100200022994B10B51A80B0
:103FC000984B0124C01817281DD84C79FCF71AF912
:103FD000180027003500440050005D0078007E0086
:103FE00090009500A400BB00DD00E400E900F000B3
:103FF000F700FE000301090117019A0020012601C4
:10400000002C02D10024200010BD874B1B78042B0C
:10401000F8D114220A21B120FFF77EF8F2E7002C34
:1040200002D0FFF7D9FDEDE704227F4B1A7006326C
:104030001100C020FFF770F8E5E7002C2ED07A4B76
:104040001B78042BDED000240122784B1C70784BA7
:104050001A70FFF7C1FDD6E7002C1FD0724B1B78FA
:10406000042BCFD00123714A1370714A1370D8E723
:10407000002C13D06C4B1B78042BC3D002226B4B4B
:104080001A706B4B01221A70CBE7002C06D0664BDE
:104090001B78042BB6D0654B0322F1E7644B1A78EA
:1040A000002AAFD01C70634B1B881D2BAAD85F4B16
:1040B0000A211A785C4B1A705A709A701422B8E769
:1040C000002C18D05C4806F0DDFC9BE7002C99D052
:1040D000E32000F015FB2C2000F012FB574807F0FE
:1040E000BAFFE32000F058FB2C2000F055FB89E7D5
:1040F000CF20002CE7D10020E5E7002CFBD0A82042
:104100008000E0E7002C03D09B2006F09FFC79E7BD
:10411000200006F09BFC76E7002C00D172E7E3203C
:1041200000F0EEFAE12000F0EBFA202000F0E8FACF
:10413000424807F090FF202000F02EFBE12000F025
:104140002BFBE320D1E7002C00D15BE7364BE320CB
:10415000DB79A12B0CD100F0D3FAE12000F0D0FAEA
:10416000162000F0CDFA354807F075FF1620E3E77A
:1041700000F0C6FAE12000F0C3FA212000F0C0FAF6
:104180002E4807F068FF2120D6E70120002C00D13F
:1041900038E7FEF773F835E7002C00D132E700204E
:1041A000F7E7002C00D12DE70120FEF7D5F829E72D
:1041B000002C00D126E70120FEF794F822E7012029
:1041C000002C00D11EE7FEF771F81BE7002C00D190
:1041D00018E70020F7E71A4B002C00D052E71C70BC
:1041E00011E7002C00D10DE7164883795A4253415C
:1041F00001228371144B1A7001F023FB02E7002C9B
:1042000000D1FFE60123114A11784B401370F9E603
:104210000F4B002CE3D001221A70F3E60D4BF8E7A8
:104220001C1200200082FFFF6A0C002026120020D2
:1042300008120020241200209F02000088130000B2
:1042400006120020742900200B1200200412002006
:104250000512002009120020074B10B51B78002B17
:1042600001D0FEF733FA002355201A00190003F09D
:1042700061FD012010BDC0460512002010B5FFF7FA
:10428000C3FBFFF723FA064807F0E5FEFFF742FA03
:10429000FFF7A2FCFFF7BAFDFFF750FE10BDC046C6
:1042A00050C3000010B5FFF70DFEFFF7E1F9FFF76F
:1042B00001F9FEF7F7FFFFF7EFFBFFF719FDFEF738
:1042C00061FCFFF77FFA10BD10B5012404280CD85B
:1042D00005290AD8102A08D811234B4366214143E7
:1042E0005B189B18A340024A9C5A200010BDC04690
:1042F0002CE50008411E174BFF39020010B50020C5
:10430000994218D88023802180245B0089001340C3
:104310001140E400581E8341D0040DD51801002936
:1043200001D020231843224201D040231843130513
:1043300001D58023184310BDD8B2002901D0022333
:104340001843224201D0042318431305F3D5082350
:10435000F0E7C046FF1E000010B50C00FFF7CAFFD3
:10436000A04710BD0300E03B10B50400072B02D9A5
:104370000549002800D105492000FFF7EDFFE0B214
:1043800000F0BEF910BDC0467D4C0008354800085D
:104390000120704710B5FFF7FBFF10BD01207047EB
:1043A00010B5FFF709FE10BD704710B5FFF7FCFF11
:1043B00010BD000013B5114B00901B780191002B2C
:1043C00016D16B465B79002B0DD0002A0BD000F084
:1043D00095FD04000100009800F068FD20000099A0
:1043E00001F056FC16BD009800F074FD0400F5E7DE
:1043F000009800F083FD0099F2E7C04631120020DA
:1044000010B50400638800881B040A001843A188C3
:10441000FFF7D0FF10BD10B504000121FFF7F0FF3A
:104420002100FFF7B7FF10BD10B504000021FFF712
:10443000E7FF2100FFF7B9FF10BD704710B500F08E
:104440003BFCFFF7FAFF024807F005FE10BDC0462F
:10445000A861000010B5FFF7F1FF06F009FD10BDDF
:1044600010B5FFF7EBFF06F013FD10BD37B50121C6
:104470000400FFF7C5FF6B469D1D28802100280022
:1044800005F058FE002801D100203EBD28882100FB
:1044900005F050FA0028F7D028882100FFF780FFA8
:1044A0000028F1D02888210005F0FAFF0028EBD081
:1044B0002888210006F0B8F90028E5D028882100D6
:1044C00005F076FB0028DFD02888210005F008FEE3
:1044D0000028D9D02888210005F0F8F80028D3D08A
:1044E0002888210006F0F6F90028CDD06379002B4A
:1044F0000BD02B881C4A93422AD00AD81B4A9342DD
:1045000028D015D8013A93420FD02000FFF746FF7C
:10451000BBE7174A934223D0164A93421DD0164A4E
:104520009342F2D101F028F9EFE7FFF793FFABE7F1
:104530000122124912480B78DC07E40F54409343E0
:104540001C430C70144000D00E4802F007F99BE7A2
:1045500001F01EF9FFF784FF96E701F001F9D4E7B7
:1045600001F00FF9D1E7C046037C0000017C000098
:104570005B7C00005C7C00005A7C0000141300206F
:1045800039E9000828E9000810B500F04AF80020D1
:1045900004F030FE06F0D3FB10BD33220301000906
:1045A0001843C0B283008010104093430343DBB232
:1045B000223258005B10904313401843C0B270473A
:1045C00070B50500C0B2FFF7E8FF0400280AFFF746
:1045D000E4FF2402204380B270BD70B5050080B2B4
:1045E000FFF7EEFF0400280CFFF7EAFF2404204346
:1045F00070BD704701207047704770B5051CFFF70C
:10460000F9FF041E02D0281CFFF7F6FF200070BD42
:10461000704710B50400FFF7ECFF201CFFF7EDFF1B
:1046200010BD10B506F0B2F9FFF7F3FF10BD0000A2
:1046300070B506F0ABF9124B04001A7882421ED016
:10464000187006F0B1FB0F4B0F4E186033785A0705
:1046500012D501252B420FD00C4802F07FF8337899
:104660002B4209D021000A4802F078F833782B4217
:1046700002D0084802F072F82000FFF7CAFF70BDB0
:10468000301200202C120020141300204BE90008E7
:1046900056E90008AAEA00081FB50B0ADBB2009031
:1046A0000191002B01D000F051FF0E2300226B443A
:1046B0001A80009B02AC02936B469B88A380DBB2FE
:1046C000934204D10298616800F076FE1FBD20007D
:1046D000FFF7A1FE0028F5D1F8E7037910B5012B0B
:1046E00002D1008800F02CFC10BD10B5002904D0C8
:1046F00002F0AEF802F052F910BD02F0F7F8F9E757
:1047000010B5041E14D0031FDBB2A02B11D81F4B11
:104710000100186806F0FAF9002804D0200000F023
:10472000B3FE00F079FF200000F0A4FE00F074FF5B
:1047300010BD03002033DBB2072B07D8072301206D
:104740001C40A040C0B200F0D5FEEFE703005B3391
:10475000DBB2022B04D80E4AD05C06F077F9E7E70B
:1047600003005833DBB21A2B05D80A4A5B00985A6B
:1047700006F088F9DCE703003333DBB2122BD7D81D
:1047800002F066F802F00AF9D2E7C046F00D002008
:104790005BE900085EE9000810B5002807D0031F98
:1047A000DBB2A02B04D800F06FFE00F035FF10BD87
:1047B00003002033DBB2072B07D807230340012077
:1047C0009840C0B200F09EFEEFE703005B33DBB21F
:1047D000022B03D8002006F039F9E8E7030058332C
:1047E000DBB21A2B03D8002006F04CF9DFE70300F8
:1047F0003333DBB2122BDAD802F078F802F0CEF8BD
:10480000D5E770B505000C00FFF77AFF002C03D147
:104810002800FFF7C1FF70BD6420013C07F01BFCBE
:10482000A4B2F3E710B55021392800D04839FFF77A
:10483000E8FF10BD10B5002803D000F05BFE00F0CB
:10484000EBFE10BD10B5002803D000F05BFE00F0B9
:10485000E3FE10BDF0B585B00C1C87790290457958
:1048600000F038FE23043F0901900393002826D06E
:104870000195002D23D023041B0E0F221900914314
:1048800040290DD0220000212032D2B20191072A06
:1048900015D98F4204D11F2201979343202B0ED0AC
:1048A0000022AA4B01925B785B0708D5022000F03A
:1048B00019FF00F00FFE01234340DBB201932304F4
:1048C000180F0B283FD8FBF79DFC0C000C005E0076
:1048D0005E00BE00D3003E003E00D8003001430120
:1048E00043010F22230426051B0E360F934300D0ED
:1048F0003601E4B2002D12D0002E0BD0230020335D
:10490000DBB23000072B01D9002C05D100F0F2FDFD
:1049100000F082FE200057E000F008FEF8E72000DB
:10492000FFF73AFF002E0ED023002033DBB2300019
:10493000072B01D9002C02D100F0E4FD01E000F0CA
:10494000FDFD00F069FE039B1B0F083B032B03D802
:1049500006F01CF8FFF75DFE019B002B11D000F064
:10496000B1FD012318400CD1029B587100F0A4FD49
:1049700000F02CFA029800F05FF900F09DFD00F0C5
:1049800031FA05B0F0BD0F22230426051B0E360FA9
:104990009343202B00D03601E4B2002C06D0012C2A
:1049A00036D0002D40D0002F1CD0B3E7674B5B788A
:1049B0005B0713D4002D0AD0002E04D0300000F085
:1049C00099FD00F029FE0020FFF79AFEBBE72800C2
:1049D000FFF7E2FE002EB6D03000ADE7002D0BD081
:1049E000002F03D13000FFF725FFACE7012FAAD13C
:1049F000300000F0E9FDA6E7002FA4D13000FFF75A
:104A000021FF300000F0EEFD300000F0C9FD9AE714
:104A1000002D02D0052F96D8E4E7042F00D992E7A5
:104A20003000FFF70FFF8EE7002FF9D0392C07D1A8
:104A3000FA20400107F00FFB2000FFF7ADFE82E7F0
:104A4000C8208000F6E72005800F0AD0012800D09A
:104A500079E70020854201D0A005800D06F012F80C
:104A600071E7002D01D0A005800D05F0EFFF6AE78A
:104A7000E0B22900FFF739FE65E723049B019B0F95
:104A800024D1002D00D05EE72106490F20078900C0
:104A9000000F8840C2B21020204003D00F338B405B
:104AA000DB43D8B22405A40F1043022C08D00AD847
:104AB000012C02D000F05CF945E700F04FF942E725
:104AC00000F060F93FE700F044F93CE7A205920FDF
:104AD000D1B20123002D1CD01340002B00D132E7AE
:104AE0002106490F20078900000F8840C2B210201C
:104AF000204003D00F238B40DB43D8B22405A40F02
:104B00001043022C0BD00DD8012C05D000F08CF9ED
:104B100019E749080B40E0E700F07CF913E700F0E3
:104B20008DF910E700F03EF90DE7E6B22405240FF9
:104B3000002D03D0200000F049F953E73000FFF7C3
:104B400081FE200000F04EF9FDE6C0467E290020DF
:104B5000E6B23000F038042842D8FBF749FB0326C0
:104B600011182200002D07D0042F00D9EBE6E00435
:104B7000C00E00F043F9E6E6052F00D9E3E6F6E7BC
:104B8000E004C00E002DDDD100F020F9DBE6002DA1
:104B900004D0E004C00E00F012F9D4E600F00AF9E7
:104BA000D1E61C4B5B785B0704D4E004C00E002DFB
:104BB000C8D0E9E7002D09D0E404E40E200000F09D
:104BC00005F90321200000F06BFDBCE6012000F098
:104BD00089FD012F00D8B6E6022000F083FDB2E681
:104BE000002D06D0002F01D03000EDE6E004C00E0D
:104BF000CAE7002F0AD0392E05D1FA20400107F06C
:104C00002AFA300019E7C8208000F8E7E004C00E57
:104C100098E7C0467E29002070B5040040792188BD
:104C200000F098F9051C00F013F900F091F8291C28
:104C30002000FFF70FFE70BD037910B50400002BB4
:104C400011D0FFF713FC00280ED100F043FC002820
:104C500009D06379002B06D0074B5B785B0702D540
:104C6000022000F03FFD10BD2000FFF7D5FF20001F
:104C7000FFF7DAFBF7E7C0467E29002010B50028D1
:104C800003D000F053FC00F0C7FC10BD10B50020AD
:104C900005F0DCFE002005F0F5FE00F057FC00F00A
:104CA000BBFC01F0EFFE01F079FE10BD10B500F085
:104CB000F5FBFFF7EBFF10BD10B500F02BFCFFF785
:104CC000F5FF10BDC3B20004020F10B500200B2A7F
:104CD00008D801210C00944022000C4C224202D141
:104CE00052060BD410BDF02B0DD003D8E7229A4208
:104CF0004041F7E7F43B58425841F3E70800E72BFF
:104D0000F0D9F13BF7E70800ECE7C0460C0C0000D7
:104D100003000279002010B5824204D0188800F008
:104D20000FF9FFF7CFFF10BD82B002B0704782B01D
:104D300002B07047704710B5FFF7FCFF10BD0000D0
:104D400010B5FFF7F8FF014B187010BD32120020AC
:104D5000704710B5FFF7F4FF10BD000010B5034B0E
:104D60001B781843FFF7ECFF10BDC046321200203D
:104D700010B5034B1B781840FFF7E2FF10BDC0468B
:104D80003212002010B5034B1B785840FFF7D8FFB4
:104D900010BDC04632120020704710B5FFF7FCFF6F
:104DA00010BD000010B5FFF7F8FF014B187010BDE3
:104DB0003312002010B50020FFF7F4FF10BD0123CF
:104DC000834010B5D8B2FFF7EDFF10BD012383403B
:104DD00010B5034A10781843C0B2FFF7E3FF10BDC7
:104DE000331200200123834010B5034A1078984302
:104DF000FFF7D8FF10BDC0463312002001238340C7
:104E000010B5034A10785840C0B2FFF7CBFF10BD71
:104E10003312002010B5034B1B781843FFF7C2FF75
:104E200010BDC0463312002010B5034B1B7818404C
:104E3000FFF7B8FF10BDC0463312002010B5034B7A
:104E40001B785840FFF7AEFF10BDC046331200205C
:104E50007047032370B50125CC086343D21807239C
:104E60002E0019408E400021F6B20300CB40545C66
:104E70002B405B426340334063405354013103296C
:104E8000F3D170BD30B50724032300220440C008CD
:104E900058430125091810008B5CE3402B409340D8
:104EA00001321843C0B2032AF6D130BD07B503045E
:104EB00001AA10801B0E0800052B08D81278102AB2
:104EC00005D8112159438918014AFFF7C2FF07BDD0
:104ED0003412002007B5030401AA10801B0E002025
:104EE000052B08D81278102A05D8113058430249EA
:104EF0008018FFF7C7FF0EBD34120020F7B5072456
:104F000001270D4B01AE30801A780C4B1B781A43E9
:104F10000092009BE5B223413B4204D1013CF8D210
:104F200000252800FEBD3168280000F0C1FE80B2D7
:104F30000128F3D0F5E7C0463312002032120020DA
:104F400007B501AB18800198FFF7D8FF019900F071
:104F5000AFFE0EBD37B50F4B01AC1B782180002B87
:104F600003D00198FFF7ECFF3EBD00280CD020686D
:104F7000FFF7C4FF050001002068FFF797FF0199C4
:104F8000280000F095FEEFE72068FFF7A3FF05007B
:104F9000F5E7C0463112002030B5012425008D40D0
:104FA0002900250095402A009C400A430300010087
:104FB000D2B21140A343914201D10443E3B218009D
:104FC00030BD000010B504001300044A10780A0038
:104FD0002100FFF7E1FFFFF7E5FE10BD33120020CF
:104FE00070B507250B4B1C780B4B1B78A34200D1E7
:104FF00070BD0A4BE200D15A9B1858889A88000469
:105000000843D988013409041143FFF790FE2C406E
:10501000EAE7C046A5120020A41200206412002076
:10502000064B10B558881A88D988000410439A880E
:1050300009041143FFF77BFE10BDC0465C1200203F
:105040000F221B48F8B5837993432BD14379002B6A
:1050500028D0184B05881A78174B46881C780723E8
:105060009C46164FA2421DD0D300FB181979002987
:1050700019D01988A94216D15979002913D1598814
:10508000891B89B277290ED80F24102182792240FA
:105090000A4382719A79224011439971FFF7CCFD3E
:1050A000FFF79EFFF8BD634601321A40DAE7C046BB
:1050B0005C120020A5120020A4120020641200201F
:1050C000F0B50C4B0C4A1B7816780C4CB34202D14D
:1050D00000221000F0BDDD00621957788F4205D123
:1050E0002D5D854202D15279002AF2D10722013387
:1050F0001340EBE7A5120020A41200206412002048
:10510000F0B504008BB00622010004A8FBF77CFB7D
:10511000A84D22792B796779002B1CD10126002A12
:1051200000D17FE0002F11D02000FFF7F1FD061E17
:105130000CD0082221002800FBF766FB2800FFF7AF
:10514000CCFAFFF77DFFFFF76BFF6BE02000FFF766
:1051500073FD012666E023780093637801936388EA
:1051600002936B8802996E79CB1A9BB2002E00D104
:10517000DAE0772B00D998E0002A53D02B880F2053
:105180000393AB7921881A0082435CD1039A914240
:105190000ED1002F50D1102203401343AB71FFF703
:1051A0003FFF2800FFF748FDAB79A3713E0039E0CF
:1051B000002F41D101990098FFF782FF01990098D3
:1051C000FFF77EFF051EF1D1009A04AB1A70019A19
:1051D0005A700498FFF7B4FE0304190F0B2914D872
:1051E00001228A40C0210901C0B20A421DD10C210E
:1051F0000A420FD1920708D01B011B0F01D00028D3
:105200000FD02030C0B207280BD92000FFF714FDC3
:10521000350006E00F221B0E1A42F2D0A379934309
:10522000EFD12E0030000BB0F0BDEF28F9D90F30D0
:10523000C0B20228E9D8F4E701235E4A91790B4312
:1052400093710026EEE7039A91420BD1002F09D10A
:10525000A3712000FFF7F0FC082221002800FBF7D3
:10526000D3FA70E72000FFF753FD002800D16DE767
:10527000002F00D16AE74F4B9A791F2A0BD906A855
:1052800019880180029941801B7982710371002382
:105290004371FFF7D1FC082221004648FBF7B4FA1E
:1052A000FFF7CEFEFFF7BCFE53E7AB790F211800E6
:1052B0008843039017D1009904AB197001991A71B2
:1052C000597002995F71598005990498FFF72CFD78
:1052D0002800FFF7B1FC082203992800FBF7E8FA41
:1052E000FFF79EFEADE7002A9CD0298822889142D4
:1052F0000BD1002F09D12000A371FFF79DFC0822DC
:1053000039002800FBF7D4FA8CE72000FFF700FDF6
:10531000002800D11AE7002F00D117E7254B08A875
:105320009A791F2AB7D9ABE7772B2FD80126002A05
:1053300000D177E73E1E00D108E72A8823889A42E9
:1053400017D1AA79D3070ED40F2113008B430AD0AB
:10535000A271F02B00D17CE7D3B21A0901321201FD
:105360000B40134374E7082221001248FBF74CFA64
:1053700058E72000FFF7CCFC00288CD10123AA7944
:1053800020001343AB71FFF757FC4BE7009904ABC8
:10539000197001991A71597002995F7159800498B6
:1053A0000599FFF7C1FC082231002800FBF780FABD
:1053B000C9E6C0465C120020F0B585B06C4600908E
:1053C00020006160FFF79CFE264E071E264D0CD084
:1053D0002379002B02D003CCFFF7A9FC07272878FC
:1053E0003378834225D105B0F0BD220002AB9C4644
:1053F00003CA03C32379002BF0D007233078441C61
:105400001C402B789C420AD0184BC0001818082268
:105410006146FBF7F9F93470FFF7E2FDDEE7FFF7CD
:105420004BFC08223900124837702F70FBF740FA06
:10543000D4E70E4CC0002018FFF762FE0028D2D03F
:105440002B78DB001A5BE4186088E188A3880004ED
:10545000090419431043FFF76AFC2B7801333B40E2
:105460002B70BCE7A4120020A512002064120020BB
:105470005C12002010B5034B0100186805F0C8FB52
:1054800010BDC046F00D002010B5034B0100186898
:1054900005F0D2FB10BDC046F00D002010B5024B48
:1054A000186805F0DDFB10BDF00D0020014B1878E9
:1054B0007047C046E7120020014B1878C0087047BB
:1054C000E6120020024B1878072318407047C046A8
:1054D000E6120020034B187807231840431E98411A
:1054E000C0B27047E6120020014B18787047C046E2
:1054F000E9120020024B1A78104318707047C0461A
:10550000E9120020024A1378834313707047C046A3
:10551000E91200200022014B1A707047E9120020A6
:10552000014B18787047C046EB120020024B1A78E6
:10553000104318707047C046EB120020024A1378DF
:10554000834313707047C046EB1200200022014BCA
:105550001A707047EB120020014B18707047C0465C
:10556000EC1200200022014B1A707047EC12002050
:10557000014B18707047C046EA1200200022014B10
:105580001A707047EA120020014B18787047C04625
:10559000E8120020704710B5FFF7FCFF10BD0000B7
:1055A00010B5054A1378184204D0834318001370CD
:1055B000FFF7F1FF10BDC046E7120020704710B59D
:1055C000FFF7FCFF10BD0000010010B5044A13787E
:1055D0001940814203D003431370FFF7F0FF10BD61
:1055E000E812002010B5054A1378184204D083430E
:1055F00018001370FFF7E3FF10BDC046E81200204B
:1056000010B5044B1A78002A03D000201870FFF759
:10561000D6FF10BDE812002070B5174B174A1B7853
:105620001278174C1343174A206812780370002A27
:1056300007D01343037005F04DFA002801D0FFF79F
:10564000DFFF2468104B114D1A782378290093430B
:105650000F4A20001278134323702022FBF7ACF886
:10566000002807D0202221002800FBF7CDF82000D9
:1056700005F09AF970BDC046E9120020EB12002037
:10568000F00D0020E8120020EA120020C6120020CF
:10569000EC120020704710B5FFF7FCFF10BD0000B2
:1056A000094B10B55B785B070AD5084CC3000B4368
:1056B0002370FFF78BFB2078C008FFF7ECFF10BDCD
:1056C000FFF784FBFBE7C0467E290020E61200209E
:1056D000002010B5024B1870FFF7DDFF10BDC0466B
:1056E000E612002010B5094A1378190081431170A1
:1056F0004A070AD1994208D0054B5B785B0704D56D
:10570000C808FFF76FFBFFF7E3FF10BDE6120020AC
:105710007E2900200F4A70B5537804005907C90F3D
:10572000814215D0010001250420294089008343CE
:105730000B435370108800F052F80220FFF7D2FF9D
:10574000054B1B782B4203D02100044801F006F8DA
:1057500070BDC0467E2900201413002094E9000883
:10576000044B10B5587801234007C00F5840FFF78D
:10577000D1FF10BD7E29002010B50120FFF7CAFF20
:1057800010BD10B50020FFF7C5FF10BD7047000029
:1057900010B501F02DFC0249002001F064FA10BDA3
:1057A000FFFF000010B5002001F002FA034B0200D9
:1057B00000209A4201D104F066F810BDE6FE000018
:1057C00010B5022001F0E8F910BD10B5032001F07A
:1057D000E3F910BD10B5042001F0EAF910BD10B5D1
:1057E0000100042001F03FFA10BD10B501000F20A8
:1057F00001F045FA10BD10B50020FFF7F6FFFFF7E6
:10580000C5FF10BD10B501000E2001F020FA10BD3B
:1058100010B5132001F0D8F9083843425841C0B2FE
:1058200010BD10B50400FFF7F3FF0822011E04D0DD
:105830002521200001F0E0FB10BD2000FBF738F827
:10584000FAE710B504000821132001F018FA082225
:105850002521200001F0DEF910BD07B50822002146
:105860006846FBF725F86846FFF7EBFF07BD000029
:1058700013B501F0BDFB2349002001F0F4F900212C
:10588000022001F0E4F90021032001F0E0F9A02159
:1058900000241D4B490104201C7001F0E4F9210093
:1058A000062001F0D4F9FF21072001F0D0F92100F2
:1058B000082001F0E4F92100242001F0C8F92100BA
:1058C000172001F0C4F921000C2001F0C0F92100DB
:1058D0000D2001F0BCF900230022684600920193DC
:1058E0001821083201F096F92100202001F0C7F9B3
:1058F000FFF7B3FF200003F0DAFF03F0F9FFFFF733
:105900007AFF13BDE6FE00003212002010B5FFF74B
:10591000AFFF10BD73B505F07FFA094C0500238871
:1059200083420CD06B4600261E8005F075FA6B464C
:105930009E80588000980199FEF7AEFE258073BDC9
:10594000F812002010B505F02FFA024B1860024B38
:10595000186010BDF0120020F4120020704770474C
:1059600010B5FFF7FCFF10BD10B5FEF787FC10BDAA
:105970000120704710B5054800F076FA01F034FBBD
:10598000FFF7ECFFFFF7ECFF10BDC04639B600088B
:105990000120704710B5FFF7FBFF10BD704710B531
:1059A000FFF7FCFFFEF77EFC10BD10B500F086FA95
:1059B000FEF72EFE03F0B0FB10BD10B505F0F0F9B8
:1059C00003F0A5FF00F05AFBFFF7EFFFFFF7CCFF56
:1059D00010BD0000F0B587B0FFF7CAFF00280BD15B
:1059E000FFF798FF04F040FD03F000FB01F07AF8A8
:1059F000FEF71EFE07B0F0BD00F058FB2C4F002450
:105A00003D0020000134E4B22E6800F081FA062C3B
:105A10004BD004358642F4D0264B1B789B0701D52A
:105A200000F07CFAFFF7B6FF00240390200000F09E
:105A30006FFA3B6800900293029A90422DD00123A6
:105A400000250193029A009B5340019A1A421BD0F1
:105A50001600009B1E40731E9E41039BF6B2002B56
:105A60000DD004AB1D705C7005F0D6F9012204ABBB
:105A700058801A715E7104980599FEF70DFE320088
:105A80002900200003F022F9019B01355B00EDB2F3
:105A90000193112DD6D1009B3B600134E4B2043751
:105AA000062CC3D1FFF74EFF9CE78642B4D197E79F
:105AB000FC1200201413002070B500F003F9624BB3
:105AC000040098422AD88023DB01984200D36CE07E
:105AD000DF2819D8CD2854D2A7280AD8A5284AD219
