:020000040800F2
:1000000000040020910100086FB20008930100086D
:100010009301000893010008930100089301000870
:100020009301000893010008930100089301000860
:100030009301000893010008930100089301000850
:100040009301000893010008930100089301000840
:100050009301000893010008930100089301000830
:100060009301000893010008930100089301000820
:10007000930100089301000893010008B9C3000828
:100080009301000893010008930100089301000800
:1000900093010008930100089301000893010008F0
:1000A000930100089301000893010008D1C00008E3
:1000B000E9C00008F3C0000893010008C9C50008A2
:1000C00072B6244880F30888234880F30988022008
:1000D00080F31488BFF36F8F0AF0D8FD0AF0A0FBFD
:1000E0001E481F491B4A914202DA08600431FAE7B0
:1000F0001C49194A914202DA08600431FAE71A49A8
:100100001A4A1B4B9A4204DA086810600431043220
:10011000F8E700201749184A914202DA08600431D2
:10012000FAE70AF0B7FD0AF0B2FD144C144DAC42E8
:1001300003DA216888470434F9E705F067FF114CBA
:10014000114DAC4203DA216888470434F9E70F49BE
:100150000847000000040020000C002055555555AC
:10016000000000200004002034E30008000C002000
:10017000940F0020980F0020BC290020C000000828
:10018000C0000008C0000008C000000891AC0008D2
:1001900096E700F000F8FEE7F0B544464D465646B7
:1001A0005F46F0B46B46CB60C3689D46F0BCA0468A
:1001B000A946B246BB46F0BD62B6281CA047002047
:1001C0000AF0D2FFFEE70AF035FF024A024B136045
:1001D000FEE7C04604ED00E00000008002B4714676
:1001E00049084900095649008E4402BC7047C04680
:1001F00002B4714649084900095C49008E4402BCBA
:100200007047C04603B47146490840004900095A86
:1002100049008E4403BC7047002243088B4274D3CC
:1002200003098B425FD3030A8B4244D3030B8B42F7
:1002300028D3030C8B420DD3FF22090212BA030C00
:100240008B4202D31212090265D0030B8B4219D3E1
:1002500000E0090AC30B8B4201D3CB03C01A524101
:10026000830B8B4201D38B03C01A5241430B8B4249
:1002700001D34B03C01A5241030B8B4201D30B0332
:10028000C01A5241C30A8B4201D3CB02C01A524159
:10029000830A8B4201D38B02C01A5241430A8B421C
:1002A00001D34B02C01A5241030A8B4201D30B0205
:1002B000C01A5241CDD2C3098B4201D3CB01C01A1F
:1002C000524183098B4201D38B01C01A5241430929
:1002D0008B4201D34B01C01A524103098B4201D317
:1002E0000B01C01A5241C3088B4201D3CB00C01A84
:1002F000524183088B4201D38B00C01A52414308FC
:100300008B4201D34B00C01A5241411A00D2014620
:10031000524110467047FFE701B5002000F0F0F8A9
:1003200002BDC0460029F7D076E7704703460B436D
:100330007FD4002243088B4274D303098B425FD3DE
:10034000030A8B4244D3030B8B4228D3030C8B420A
:100350000DD3FF22090212BA030C8B4202D31212F0
:10036000090265D0030B8B4219D300E0090AC30BC5
:100370008B4201D3CB03C01A5241830B8B4201D372
:100380008B03C01A5241430B8B4201D34B03C01A5B
:100390005241030B8B4201D30B03C01A5241C30AD3
:1003A0008B4201D3CB02C01A5241830A8B4201D344
:1003B0008B02C01A5241430A8B4201D34B02C01A2E
:1003C0005241030A8B4201D30B02C01A5241CDD2D3
:1003D000C3098B4201D3CB01C01A524183098B421E
:1003E00001D38B01C01A524143098B4201D34B0107
:1003F000C01A524103098B4201D30B01C01A52416A
:10040000C3088B4201D3CB00C01A524183088B42F0
:1004100001D38B00C01A524143088B4201D34B00D9
:10042000C01A5241411A00D201465241104670474B
:100430005DE0CA0F00D04942031000D34042534050
:1004400000229C4603098B422DD3030A8B4212D310
:10045000FC22890112BA030A8B420CD38901921142
:100460008B4208D3890192118B4204D389013AD07F
:10047000921100E08909C3098B4201D3CB01C01A54
:10048000524183098B4201D38B01C01A5241430967
:100490008B4201D34B01C01A524103098B4201D355
:1004A0000B01C01A5241C3088B4201D3CB00C01AC2
:1004B000524183088B4201D38B00C01A5241D9D2DA
:1004C00043088B4201D34B00C01A5241411A00D25B
:1004D0000146634652415B10104601D34042002B57
:1004E00000D54942704763465B1000D3404201B5D6
:1004F000002000F005F802BD0029F8D016E770478B
:100500007047C0469140031C90409C46203A93405F
:10051000194352426346D34019437047002B11D10F
:10052000002A0FD1002900D1002802D00021C943A0
:10053000081C07B4024802A14018029003BDC0463F
:10054000C1FFFFFF03B4684601B5029800F030F820
:10055000019B9E4602B00CBC7047C046F0B5CE462B
:10056000474615042D0C2E0080B50704140C3F0CD3
:100570009946030C7E435D43674363437F19340C04
:10058000E4199C46A54203D980235B029846C444E3
:100590004B4643435143250C36046544360C240432
:1005A000A4195B19591820000CBC90469946F0BD5F
:1005B000F0B557464E464546DE46E0B5040083B0EA
:1005C0000D00924699468B4230D82DD04946504670
:1005D00000F0C0F829000600200000F0BBF8331A34
:1005E0009846203B9B4633D45A4653469340424656
:1005F0001F00534693401E00AF423AD8AF4200D18D
:100600007BE05B46A41BBD41002B00DA78E00022B2
:1006100000230092019301235A4693400193012342
:1006200042469340009328E08242CFD90022002323
:10063000009201930C9B002B01D01C605D60009820
:10064000019903B03CBC90469946A246AB46F0BD2A
:10065000424620239B1A5246DA40414613004A463E
:100660008A40170042461F43534693401E00AF4244
:10067000C4D900220023009201934346002BD9D015
:10068000FB079C46614672080A437B0846460EE01B
:10069000AB4201D1A2420CD8A41A9D4101202419D9
:1006A0006D410021013E24184D41002E06D0AB4281
:1006B000EED9013E24196D41002EF8D10098019920
:1006C0005B4600196941002B25DB2B005A46444646
:1006D000D3402A00E2401C005B461500002B2BDBB8
:1006E00026005F46BE40330026004746BE4032002B
:1006F000801A9941009001919CE7A342B9D880E704
:100700004246202300219B1A0022009101920122DF
:10071000DA40019283E7424620239B1A2A0046468C
:100720009A402300F340444613432A00E2401C0051
:100730005B461500002BD3DA2023424626009B1A85
:10074000DE402F00B4464646B74066463B00334382
:10075000CAE7C04610B5002903D100F007F82030E1
:1007600002E0081C00F002F810BDC0461C21012365
:100770001B04984201D3000C10391B0A984201D384
:10078000000A08391B09984201D30009043902A262
:10079000105C40187047C0460403020201010101C9
:1007A000000000000000000010B5062000F0D6F99F
:1007B00001200CF043FAC04630B5032A0CD90300DF
:1007C0000B439B071CD103680C68A34218D1043A61
:1007D00004300431032AF6D8551E002A0ED00278C0
:1007E0000C7894420ED101350123013904E0C25C3A
:1007F0000133CC5CA24205D1AB42F8D1002030BD20
:10080000551EECE7101BFAE7F0B5C64600B50F2AF7
:1008100043D90B00032603431E400C000300002EA7
:1008200040D11500103D2D09AC462D01A84680444D
:1008300000E03B00676825685F60E7681D60DF6077
:100840001F00A56810379D6010344345F1D16546FF
:100850000F230C2401352D01491913404519144269
:1008600023D08C59AC5104369C1B032CF9D803249B
:10087000043B9B0801339B002240ED18C918561E0B
:10088000002A07D0002300E02300CA5C5C1CEA5465
:100890009E42F9D104BC9046F0BD0500561E002AC8
:1008A000F0D1F7E7561E0500ECE71A00F6E7C04660
:1008B000F0B5050083074AD0541E002A44D0CEB2BA
:1008C0000300032202E00135013C3DD301332E70C9
:1008D0001342F8D1032C2FD9FF220A4015021543E9
:1008E0002A0415430F2C35D92700103F3F093E013C
:1008F000B4461E001A0010366644156055609560B7
:10090000D5601032B242F8D10F260C2201373F01D8
:100910002640DB193700224217D03E1FB608B4002C
:10092000A4461A001C1D644420C2A242FCD1032428
:100930000136B6009B193C40002C05D0C9B21C19E9
:10094000197001339C42FBD1F0BD3400F4E7140070
:100950000300BFE72700E0E7114B70B51C680500F6
:10096000A06B002803D000230561436170BD1830DF
:1009700000F07EF9A06300280CD00A4B012203602E
:10098000094B4360094B83600B2383810023026181
:100990004361E8E7064B00224221064800F024F9B3
:1009A000000C00200E33CDAB34126DE6ECDE0500FA
:1009B00064E200087CE20008184B70B51D68AC6B5F
:1009C000002C0ED020696169154A164BFFF7C6FD51
:1009D0000122002312184B41580040082261636134
:1009E00070BD182000F044F9041EA8630FD00E4B10
:1009F000012203600D4B43600D4B83600B23838109
:100A000000230261436107480A4A064BE6E70A4BA6
:100A100000224E21094800F0E7F8C046000C0020F3
:100A20002D7F954C2DF451580E33CDAB34126DE61D
:100A3000ECDE05002E7F954C64E200087CE20008A5
:100A400010B58021040000F07DF96064002807D013
:100A500002000023803208C09042FCD1002010BD6B
:100A600001204042FBE7C046426C10B50023002A3B
:100A700001D0180010BDFFF7E3FF0300F9E7C046FF
:100A800070B505000C0016001F2907D8436C002B19
:100A900009D0A4001B1918681E6070BD16230360DE
:100AA00001204042F9E7FFF7CBFF002801D16B6C32
:100AB000EFE701204042F0E770B505000C001F2968
:100AC00020D8436C002B0ED08A009B181A68002A8D
:100AD00009D0012A14D0511C0ED000212000196029
:100AE0009047002070BD280000F07AF82200010035
:100AF000280000F061F8F5E7162303600120F1E714
:100B00000020EFE71623036001204042EAE7C046D9
:100B100070B505000C001F291DD8436C002B10D0A8
:100B2000A2009B181A68002A09D0511C11D0012A72
:100B30000DD00021200019609047002070BD0120D9
:100B4000FCE7FFF77DFF002805D16B6CE8E7032089
:100B5000F4E70220F2E701204042EFE710B5034B33
:100B600001001868FFF7A8FF10BDC046000C002068
:100B700010B5044B0A001B6801001800FFF780FF46
:100B800010BDC046000C0020054B10B51B680020AE
:100B90005A6C002A00D010BD1800FFF751FFFAE789
:100BA000000C002010B5034B01001868FFF7B0FFE0
:100BB00010BDC046000C0020002370B5074C050096
:100BC0000800110023600CF041F8431C00D070BDF8
:100BD0002368002BFBD02B60F9E7C046B829002022
:100BE00010B50CF03BF810BD30B51C000A4B0500E9
:100BF0001B6885B0D868002A0AD0084B029201937E
:100C000000912B002200064900F020F8FFF7CCFDF0
:100C1000044B1A00F2E7C046000C0020B0E20008C6
:100C2000C0E20008BCE20008130010B50022FFF784
:100C3000DBFFC0460CB400B583B004AB04CB01931A
:100C400000F01EF903B008BC02B018470EB400B59E
:100C500082B003AB0100054804CB0068019300F0AB
:100C60000FF902B008BC03B01847C046000C0020C2
:100C700010B5034B0100186800F064F810BDC046C1
:100C8000000C002010B5034B0100186800F004F8B8
:100C900010BDC046000C002070B50500002915D01D
:100CA0000C1F2368002B27DB280001F03DFA244BA2
:100CB0001A68002A05D0A2420CD921686018824225
:100CC00024D0626028001C6001F030FA70BDA3429D
:100CD00003D81A005368002BF9D111685018A042AC
:100CE0001BD027D821686018834207D06360546006
:100CF000280001F01BFAE9E7E418D5E718685B68FB
:100D000084466144216063605460F1E71068526872
:100D10008446614421606260D4E720680918501855
:100D200011608342E4D118685B68844661441160B5
:100D30005360DDE70C2328002B6001F0F7F9C5E7CD
:100D4000980F0020F8B50323CD1C9D4308350600FD
:100D50000C2D2AD20C25A94229D8300001F0E4F943
:100D60002A4F3A68002A0AD013685B1B04D441E07A
:100D700023685B1B1FD522005468002CF8D17B68C8
:100D8000002B3DD0290030000BF03CFF431C2AD043
:100D90000323C41C9C43A04205D0211A30000BF051
:100DA00031FF431C1FD0256010E0002DD3DA0C2347
:100DB00000203360F8BD0B2B05D86368A2421DD01C
:100DC000536003E014002360E4182560300001F054
:100DD000ADF9200007220B30231D9043C21AE9D041
:100DE0001B1AA350E6E70C233000336001F09EF994
:100DF0000020DFE70B2BE5D8140053683B60E5E7E4
:100E0000002130000BF0FEFE7860BBE7980F002059
:100E1000936810B5013B9360002B04DA9469A342F8
:100E200007DB0A2905D01368581C106008001970E8
:100E300010BD00F09BFBFBE7F8B506000F00002B90
:100E40000DD01400D51802E00134AC4207D021784F
:100E50003A003000FFF7DCFF431CF5D1F8BD00205D
:100E6000FCE7C046936810B51400002B02D10020A7
:100E7000536010BD00F072FE0023A3606360F8E7CA
:100E8000F0B54E46DE4657464546E0B5A1B0049063
:100E9000039191461C00002804D083690593002B20
:100EA00000D1BEE0AD4B039A9A4200D1C0E0AC4BFA
:100EB000039A9A4200D1CDE0AA4B039A9A4200D1FC
:100EC00047E1039A93891B0700D4B9E0136905939E
:100ED000002B00D1B4E0002308AD6B6120336B76AA
:100EE0001033AB762F3B98464B461B7807949E4FAA
:100EF000002B00D189E0252B00D125E14E4603E0EF
:100F0000252B00D1AAE026007378741C002BF7D1A2
:100F10004B46E31A9A4678D053464A4603990498BA
:100F2000FFF78AFF431C70D06B6953446B61737881
:100F3000002B6AD00122002352426A6044320134FD
:100F40002B60EB60AB60AB54AB6506E04346C01B67
:100F5000834034002A6813432B602178052238002F
:100F600001F044F8661C0028F0D12B68B246DA067E
:100F700002D543222021A9541A0702D543222B214E
:100F8000A95421782A2900D06EE0079A111D126811
:100F90000791002A00DABAE0EA606178A61C2E29DF
:100FA00000D17AE0714B03221800994601F01EF837
:100FB000002800D18FE04B46C01A402383402A68A6
:100FC000317813432B600622731C694899462976B1
:100FD00001F00CF8002800D188E0664B002B00D10E
:100FE0008EE007AB0093039A634B2900049800E05E
:100FF00000BF83465B46013307D06B695B446B617E
:101000004B461B78002B00D075E7039B9B895B0642
:101010001DD4686921B03CBC90469946A246AB46B7
:10102000F0BD00F073FD4D4B039A9A4200D03EE7AD
:10103000049B5B680393039A93891B0700D545E7DC
:101040000399049800F008FB002800D143E7012031
:101050004042DFE7049B9B68039332E74B46E31A69
:101060009A4600D166E757E70A00303AA246092AB5
:1010700095D8EB68180001E03400013683001B1896
:1010800031785B0098180A00303A092AF4D9B24640
:10109000E860A61C2E2900D084E7534659782A29F7
:1010A0003BD1079B1A1D079252469178D61C02220B
:1010B00094461B68E2446B60002B00DB72E701235F
:1010C0005B426B60294B03221800994600F08EFFAB
:1010D000002800D06FE7B1465646317806222448F2
:1010E000297600F083FF002800D076E707AB009355
:1010F000039A214B2900049800F0E4F8834679E72D
:101100000722079B073393430833079375E752423F
:10111000EA60022213432B603FE70A000023303AC3
:101120006B601800092A01D910E01E0083001B180B
:1011300071785B0098180A00303A731C092AF4D9B8
:101140009A46023668602DE74C46F3E6B246013611
:1011500028E7049BDB680393B3E6C046ACCC0008E9
:101160008CCC00086CCC0008F0E20008F8E2000823
:10117000FCE2000800000000390E000810B5040071
:101180001300034A10680A002100FFF779FE10BD22
:10119000000C0020F0B54F464646D646C0B51F00AD
:1011A000089B914698468A680B6906000C0093429A
:1011B00000DA13004A4613604322A25C002A02D0E0
:1011C0004A460133136023689A065AD54B461B687A
:1011D00006209A1C4B461A6023681900184208D151
:1011E000E16800258A1A19218A461900A244002ABA
:1011F0003FDC4323E35C5A1E93418A060AD5302024
:10120000E1184331087045215A1C615CA218433231
:10121000023311702200390043323000C047431CB2
:1012200019D006232068A26821690340042B30D01E
:101230008A423ADD00239946521A91441A34002515
:1012400002E001354D4530DA01232200390030003B
:10125000C047431CF5D1012040421CBC9046994632
:10126000A246F0BD4B46E2681B680135D31AAB427B
:1012700020DD0123524639003000C047431CF1D124
:10128000E9E706221A4212D04323E35C5A1E934137
:10129000C0E74B46E0681B68C31AD843C017184024
:1012A00081468A42C8DC002BC8DC0020D5E74A46CC
:1012B000126895E743232168E35C5A1E93418A062E
:1012C0009DD4A7E7F0B557469A4643239C464E4621
:1012D0004546DE468C446346E0B587B003930B7EFB
:1012E000914680460C00109A6E2B00D1D8E000D8B1
:1012F00071E0732B00D11AE100D881E0752B00D189
:10130000FFE0782B00D00BE10B687820452160547A
:1013100094498B46116840C91160180603D45806D9
:1013200001D53604360CDA0702D520221343236098
:101330001027002E00D1C2E043230022E25463684C
:10134000A360002B00DAC5E00422216891432160EC
:10135000002E00D083E0002B00D0BDE0039D082FBD
:1013600000D18CE0039B5B1B2361534605AA0093CD
:1013700021004B464046FFF70DFF431C22D0236956
:101380002A0049464046D047431C1BD02268059896
:10139000E368920700D47FE01A1A002A00DC7BE0A1
:1013A00026000025193606E0E368059801351A1A6B
:1013B000AA4200DC70E00123320049464046D04793
:1013C000431CF1D10120404207B03CBC90469946F5
:1013D000A246AB46F0BD632B00D184E01FD8002BA2
:1013E00069D0582B00D09BE0452163545E492368A7
:1013F0008B46116840C91160180600D48FE792E748
:101400006F2B7ED0702B00D08AE0202309687820D3
:101410000B4345212360605452498B467AE7642B85
:1014200001D0692B7CD111682368081D10601D064E
:101430004AD50A681600002A03DB4B4B0A279B4655
:101440007DE743222D21A15462687642A260002AE2
:1014500002DB042293432360434B0A279B46039DF0
:1014600000E0060039003000FEF75CFF5B465B5C85
:10147000013D2B70BE42F4D2082F00D072E72368E2
:10148000DB0700D46EE763682269934200DD69E7F9
:101490003023013D2B7065E7984295DA180093E7F9
:1014A000136809681D1D606915601B680E0601D46C
:1014B00049064BD418600023039D236155E7202380
:1014C00022689A43226037E75D06B2D500228E5E1D
:1014D0003200B0E7002EC2D15B4625001A784223C5
:1014E0004235E2543BE713682500191D11601A6864
:1014F0004223E254413B4235236143230022E2541C
:1015000033E7116820680D1D1560060601D44006FA
:101510001ED40E686F2B1DD0134B0A279B460BE77A
:1015200042222500A354012342352361E5E71368D5
:10153000191D11601D6862680021280000F056FD29
:1015400000280BD0401B60602061D6E71880B2E70E
:101550000E88DFE7044B08279B46EDE660682061B4
:10156000CBE7C04618E3000804E30008F8B505001F
:101570000E001400002802D08369002B29D02D4BC7
:101580009C422BD02C4B9C4246D02C4B9C424ED0A4
:10159000A369A360A3891B0726D52369002B23D049
:1015A000FF22F7B2616916402268D31A99422ADDF8
:1015B0000133A1680139A160511C21601770626973
:1015C0009A422BD0A389DB0701D50A2E26D0300002
:1015D000F8BD00F09BFA174B9C42D3D16C68A3690D
:1015E000A360A3891B07D8D42100280000F034F899
:1015F000002819D1FF222369F7B2616916402268D9
:10160000D31A9942D4DC2100280000F045F90028C3
:101610000AD122680123CCE7AC68B9E72100280091
:1016200000F03AF90028D2D001267642CFE7EC68E4
:10163000AEE7C046ACCC00088CCC00086CCC0008EF
:1016400010B5044B0A001B6801001800FFF78EFF5D
:1016500010BDC046000C00203E4B70B51D68060052
:101660000C00002D02D0AB69002B1BD03A4B9C42E2
:101670001ED03A4B9C424CD0394B9C4260D00C233C
:10168000E25E93B2190719D52169002921D0DA0742
:101690002ED50023A360636900205B42A36100296B
:1016A0002ED070BD280000F031FA2B4B9C42E0D1C7
:1016B0006C680C23E25E93B21907E5D4D90641D5D4
:1016C0005B0728D4216908231343A3819BB2002917
:1016D000DDD1A0228020920080001A408242D6D024
:1016E0002100300000F03AFCA3892169DA07D0D448
:1016F00000229B0700D46269A26000200029D0D19B
:101700000C22A35E1A06CCD540221343A3810138D4
:10171000C7E7AC68B3E7616B00290AD02300443304
:10172000994204D03000FFF7B7FA0C23E25E0023A1
:10173000636324239A430023216963602160C2E725
:10174000EC689CE709233360402301201A43A281FF
:101750004042A6E7000C0020ACCC00088CCC00086E
:101760006CCC0008F0B5C64600B58B8980460C00ED
:101770001A0745D44A68002A63DDE56A002D3BD08C
:1017800042464146166800220A60216ADA045CD4A7
:10179000012300224046A847431C61D0A389E56A83
:1017A000216A5B0706D56368C01A636B002B01D002
:1017B000236CC01A002302004046A847431C46D1B0
:1017C00043461B680C21625E002B56D01D2B01D0B6
:1017D000162B5DD100236360236923604346616B50
:1017E0001E60002908D023004433994202D04046AD
:1017F000FFF752FA00236363002004BC9046F0BD5B
:101800000E69002EF8D00A680E60951B00229B0717
:1018100000D14A69A260002D04DCEDE736182D1ACC
:10182000002DE9DD2B003200216A4046A76AB84747
:101830000028F3DC40220120A38940421343A38106
:10184000DBE70A6C002A98DCD6E7606DA9E7002385
:10185000636023692360A389DB04BFD56065BDE7AE
:1018600043461B68002B99D01D2B0DD0162B0BD097
:101870004022A3891343A381BFE7636023692360E8
:10188000D304ABD56065A9E7434600201E60B4E7EA
:1018900040231A43A281B0E70B6970B505000C0024
:1018A000002B16D0002802D08369002B15D00E4BD8
:1018B0009C4210D00D4B9C4212D00D4B9C4211D03B
:1018C0000C22A35E002B04D021002800FFF74AFF62
:1018D00000E0002070BD6C68F2E700F017F9E6E761
:1018E000AC68EDE7EC68EBE7ACCC00088CCC00080A
:1018F0006CCC000810B5011E04D0054B1868FFF72A
:10190000CBFF10BD034B0449186800F0D9FAF8E783
:10191000000C002068CC00089918000800207047CF
:1019200010B5024900F0CCFA10BDC0469918000865
:101930000020704770B568244A1E54430E002100F1
:101940007431FFF7FFF9051E09D000232200036060
:1019500046600C30A86068320021FEF7A9FF28001D
:1019600070BDC0461E4B70B51D680600AB69002BEC
:1019700027D048356B68AC68013B03D51CE0683460
:10198000013B19D30C21625E002AF8D1002520000A
:10199000144B656625606560A560E360256165613F
:1019A000A561082200215C30FEF782FF6563A56314
:1019B000A564E564200070BD2C68002C05D02500CE
:1019C000D8E7280000F010F8D3E704213000FFF733
:1019D000B1FF041E2860F2D10C233360EAE7C04651
:1019E00068CC00080100FFFFF0B5D6464F464646DA
:1019F000384BC0B5836200238364C3640365364BF0
:101A000082B01B6805000193984260D02800FFF760
:101A1000A9FF68602800FFF7A5FFA8602800FFF76E
:101A2000A1FF6E680024E86004233000746634600F
:101A30007460B460F36034617461B46108220021A1
:101A40005C30FEF735FF254B254F9A467362254BD8
:101A500037639946B362244B3662F362AE689846A8
:101A60003000224B746634607460B460F36034619B
:101A70007461B461082200215C30FEF719FF5346FF
:101A800073624B46B36243463763F3623662EE6875
:101A9000174B3000F360746634607460B460346176
:101AA0007461B461082200215C30FEF701FF5346E7
:101AB00073624B46B3624346F36201233662376377
:101AC000AB6102B01CBC90469946A246F0BD012312
:101AD00083619BE72119000868CC00088121000878
:101AE00019220008AD210008ED21000809000100BD
:101AF0001200020010B5034B0349186800F0E0F92A
:101B000010BDC04668CC000899180008836910B55C
:101B1000002B01D1FFF768FF10BDC0467047C046DB
:101B20007047C0467047C0467047C04610B5034B6B
:101B30000349186800F0A2F910BDC046000C00204F
:101B40001D19000810B5034B0349186800F096F9F9
:101B500010BDC046000C002031190008F0B5454604
:101B6000DE4657464E46E0B5936883B000900C00C1
:101B70009046002B6DD08B891A0700D471E00A695A
:101B8000002A00D16DE0424616689A0700D475E03D
:101B9000A36A00279A46B54B00259946216A002D75
:101BA00016D02B004D4500D9B04B3A000098D047D5
:101BB000002800DCD5E043469B683F182D1A181A10
:101BC0004346986045D0A36A216A9A46002DE8D121
:101BD000376875680836E2E74B461B689A464B46FD
:101BE0005F6808239C46E144002FF5D03A000A21A3
:101BF000504600F0FBF9002800D1CEE053460130FA
:101C0000C61A3300BB469F4200D99B462068226912
:101C10006369904204D9A2689D18AB4500DD92E04B
:101C20005B4500DDF9E0A56A5246216A0098A847A5
:101C3000051E00DC95E0761B0120002E00D1E4E0BB
:101C400043469B68AA447F1B5D1B43469D6000D0B2
:101C500095E0002003B03CBC90469946A246AB46B6
:101C6000F0BD21000098FFF7F7FC002800D0F9E054
:101C70004246A38916689A0700D589E7DA0778D41F
:101C8000002291468022920000279346A568206892
:101C9000002F53D05A46134200D181E0AA46BD42DC
:101CA00000D9AFE09022D20013422ED02169451A0C
:101CB000AC466069019542001218D00F8218781C5A
:101CC000521060449246904201D9824602005B0560
:101CD00000D4AFE011000098FFF734F8051E00D1E2
:101CE000BAE0019A2169FEF78FFDA389604A13408B
:101CF00080221343A3815246019B2561E818BA460E
:101D00003D00D31A20606261A3605246494600F04C
:101D1000ADF9A3685D1BA5603D000027236853440F
:101D2000236043469B68A9445D1B43469D6000D1E8
:101D30008FE7A5682068A389002FABD13268776848
:101D400091460836A4E751462A0000F08FF923682F
:101D500021005B1923600098FFF79EFD002800D149
:101D600069E70C22A35E402201201343A381404275
:101D700070E70023B14600209A4600271E00002F7E
:101D800000D129E7002800D03BE73A000A2150465D
:101D900000F02CF9002800D030E77B1C1E0031E752
:101DA0002369834217D363699A46BB4213D8314BE8
:101DB00038009F4200D930485146FEF7B7FA5346E3
:101DC0004A464343216A0098A56AA8470028C8DD0F
:101DD00005007F1BA5E7BD4200D93D002A0049460A
:101DE00000F044F9A36822685B1B5219A3602260CB
:101DF000002BEED121000098FFF74EFD0028B0D156
:101E00007F1B8EE73D00BA467FE721000098FFF771
:101E100043FD002800D113E7A3E75A46514600F0DE
:101E200025F95A46A3685D469B1AA36023685B4464
:101E3000236000E7009800F07BF9051E00D05AE708
:101E4000009D21692800FEF727FF8022A389934384
:101E5000743A1BB22A6086E70C23009A13600C22A6
:101E6000A35E80E701204042F4E6C04600FCFF7F0D
:101E70007FFBFFFFFEFFFF7FFFFFFF7FF0B5C64642
:101E8000483000B5884607000026002813D07B683C
:101E9000BC685D1E0CD4A389012B06D90E22A35E5B
:101EA000013302D02000C04706436834013DF2D21E
:101EB0003F68002FEBD1300004BC9046F0BDC04617
:101EC000F8B54746CE4680B5070048378046894674
:101ED0000026002F14D07B68BC685D1E0DD4A3893A
:101EE000012B07D90E22A35E013303D02100404607
:101EF000C84706436834013DF1D23F68002FEAD15C
:101F000030000CBC90469946F8BDC04670B50C0038
:101F10001D000E23C95E96B01600002914DB6A4628
:101F20000AF07DFE00280FDBF022019B1202134015
:101F3000094A944663445A4253412B608023DB0094
:101F40003360002016B070BD00232B60A3891B06F0
:101F5000F4D540233360F4E700E0FFFF70B58B89D0
:101F600082B006000C009B0707D52300473323608F
:101F700023610123636102B070BD01AB6A46FFF7C4
:101F8000C5FF009905003000FEF7DCFE002810D0E8
:101F90008022154BB362A38920601343009A1BB2C1
:101FA0006261019AA3812061002A0CD12B43A38195
:101FB000E1E70C22A35E9A05DDD4032293430222BB
:101FC0001343A381D1E70E23E15E30000AF033FE14
:101FD000002802D10C22A35EE8E70322A3899343E1
:101FE000012213431BB2E1E72119000870B5CDB2FD
:101FF000830734D0531E002A1BD00278AA4219D07E
:10200000032404E0013B14D30278AA4212D0013029
:102010002042F7D1032B0ED8002B0AD00278AA4217
:1020200008D0C31802E00278AA4203D001308342EC
:10203000F9D1002070BDFF220C06240C1140214371
:102040000C04084E0C430268074962405118914342
:102050003142E3D1043B0430032BF4D8DCE7130016
:10206000D8E7C04680808080FFFEFEFEF0B5C64601
:1020700000B588420CD98B18984209D2531E002A09
:1020800003D0CA5CC254013BFBD204BC9046F0BDF5
:102090000F2A0CD80500561E002AF6D0002300E0B7
:1020A0002300CA5C5C1CEA549E42F9D1EDE70B00A8
:1020B000032603431E400C000300002E2ED1150002
:1020C000103D2D09AC462D01A846804400E02B00B0
:1020D0001D00276810351F6067685F60A7689F60F4
:1020E000E7681034DF604345F1D165460F230C24C7
:1020F00001352D01491913404519144211D08C594D
:10210000AC5104369C1B032CF9D80324043B9B08D8
:1021100001339B00ED18C9182240BCE7561E05008C
:10212000BCE71A00B7E7C0467047C0467047C046D4
:10213000F8B507000C00150000291BD0002A15D0A7
:1021400000F070F82600A84201D33000F8BD290045
:102150003800FEF7F7FD061EF7D021002A00FEF733
:1021600053FB21003800FEF797FDEEE7FEF794FDE4
:102170000026EAE71100FEF7E5FD0600E5E7C046A8
:1021800070B50C000E25495F0AF031FD002803DB15
:10219000636D1B18636570BDA389024A1340A38158
:1021A000F9E7C046FFEFFFFF00207047F8B51600C3
:1021B0001F000C228B5E0C0005000E22895EDA05E2
:1021C00008D4094A28001340A38132003B000AF0DA
:1021D00015FDF8BD002202230AF00EFD0C22A35EBD
:1021E0000E22A15EEDE7C046FFEFFFFF70B50C00C9
:1021F0000E25495F0AF000FD431C06D08023A2890A
:102200005B011343A381606570BDA389014A13403C
:10221000A381F9E7FFEFFFFF10B50E23C95E0AF0B7
:10222000EFFC10BD0B1F1B68181F002B00DB704755
:102230000B58C018FBE7C0460949421C0B785343B2
:102240009BB21B0A0B7007490B7853439BB21B0AC6
:102250000B70054B1878504380B2000A1870704715
:102260004D2600204E2600204C26002010B50C21C3
:10227000014801F0A3FB10BDC10F002010B5094AB1
:102280001378002809D0042B06D8013313700648B0
:102290001378837003F017FA10BD002BFCD0013BBC
:1022A000F4E7C046660C0020D426002010B50B4A87
:1022B0001378042B01D9022313701378002809D056
:1022C000002B01D0013B137005481378C37003F055
:1022D000FAF910BD032BF7D80133F4E7680C00209E
:1022E000D426002010B5184B184A1C781178184BCA
:1022F000002C09D000291AD00021117019708842D1
:1023000017D11978013916E000280BD0002910D018
:1023100014701C700F4812781B780271437103F01F
:10232000D2F910BD0029ECD0107007210AE0002876
:10233000E7D019780131C9B219700729EAD901210A
:10234000117000211970E5E7E50F0020670C0020EF
:10235000C00F0020D426002010B50D4A13780028A5
:102360000FD00133DBB2042B09D800211370094BC5
:10237000094819701378437003F0A5F910BD0023C4
:10238000F3E7002B01D0013BEFE70423EDE7C04664
:10239000E50F0020E70F0020D426002010B5002410
:1023A000054B8008890892080134587019709A709A
:1023B0000333062CF8D110BDC10F002010B5062440
:1023C000054B8008890892080134D87499741A75ED
:1023D00003330C2CF8D110BDC10F0020F8B51F4BF2
:1023E0001A78002A2CD000221A7007F0F3FD1C4B3B
:1023F0001C4A1860012313701B4B1C4CDB791C4DCD
:102400001C4EA22B21D1223B23702B70144F337012
:10241000386807F023FEFA214900FDF7FDFEC307E7
:1024200018D4327829782078FFF7C8FF386807F089
:1024300015FE114B984207D900230A4A137003E096
:10244000084B1B78002BD7D1F8BD002323702B70CD
:102450008033DBE7002211001000E5E7A410002024
:10246000FC0F0020F80F00206A0C00204D260020F1
:102470004E2600204C260020B70B0000F8B51F4B5D
:102480001A78002A2DD000221A7007F0A3FD1C4BE9
:102490001C4A1860012313701B4B1C4C9B791C4D6C
:1024A0001C4E002B22D00023802223702A70144F50
:1024B0003370386807F0D2FDFA214900FDF7ACFE11
:1024C000C30717D4327829782078FFF777FF386868
:1024D00007F0C4FD104B984207D90023094A137036
:1024E00003E0084B1B78002BD6D1F8BD80222B705F
:1024F0002270DCE7002211001000E6E7A3100020A4
:10250000F40F0020F00F0020D42600204D260020DC
:102510004E2600204C260020B70B0000094B10B5BA
:102520001A780224042A09D107F050FB044204D08F
:10253000802200201100FFF731FF10BD5B7923429C
:10254000FBD0F5E76A0C0020F7B5274B1878002878
:1025500005D12C23254AFF3312889A423FD82449BB
:10256000244C0A78244D8023244E002A2CD122703A
:102570002B703270002821D0FA22CB780192012BE7
:1025800002D0FA235B0001931D4F386807F066FD07
:10259000019B5B08984203D9002323702B70337092
:1025A000386807F05BFD019B984207D30E4B0E4A3B
:1025B0001B78013B137007F00DFD386032782978E5
:1025C0002078FFF7EBFE0EE0042A04D123702B7075
:1025D00000233370CEE7002222702A70F9E707F05B
:1025E000F9FC074B1860F7BDB6100020B8100020AA
:1025F0006A0C00204D2600204E2600204C2600208C
:10260000BC0F002070B505000F2857D9322859D9C2
:102610000024502383426441FF266442E4B2002335
:10262000320021001D2005F0BDFA0A2D45D90023F6
:10263000320021001C2005F0B5FA142D3DD90023ED
:10264000320021001B2005F0ADFA1E2D35D90023E4
:10265000320021001A2005F0A5FA282D2DD90023DB
:1026600032002100192005F09DFA322D25D90023D2
:1026700032002100182005F095FA3C2D1DD90023C9
:1026800032002100172005F08DFA462D15D90023C0
:1026900032002100162005F085FA502D0DD90023B7
:1026A00032002100152005F07DFA5A2D05D90023AE
:1026B00032002100142005F075FA70BD0028FCD00E
:1026C000002600E04026FF24A9E7000010B5024BD9
:1026D0009879FFF797FF10BD6A0C002070B50F289E
:1026E0000DD9142826D9282828D93C282AD9502899
:1026F0002CD95F282ED980220021052302E0002258
:10270000802113000024184826000500890892083B
:1027100021350134E4B269702A70AE70033DA342E2
:10272000F7D2002101339A009A1A21328218062B1F
:1027300013D170BD402280210123E3E74022802194
:102740000223DFE7402280210323DBE740228021B0
:102750000423D7E740228021CFE701335170117065
:102760009170DBB2033AE2E7C10F0020F8B54E4B9F
:102770004E4E1A784E4C4F4D4F4F002A1FD000221C
:102780001A7007F027FC4D4B186023793370A3793A
:102790002B7007F01FFC494B3860186807F05EFC8F
:1027A000474B984204D90023464A1370464A137097
:1027B00032780123032A5CD1434A13701BE022794B
:1027C00033789A42E5D0386807F048FCFA239B003A
:1027D000984210D9012332781A420AD122791A423A
:1027E00007D0384A1370384A137007F0F3FB334BA5
:1027F000186023793370A2792B78344E9A423DD0F9
:10280000306807F02BFCFA239B00984201D9A3798A
:102810002B702F4B1B78002B03D12A4B1B78002BDE
:1028200026D0294B1B78002B39D02A4D286807F079
:1028300015FC294C0A2808D907F0CCFB237828601E
:102840005A1ED1B2120627D421708023234D244E64
:102850002B70403B33700023224F234A3B70237878
:10286000D05CFFF7E9FC3A7831782878FFF7A6FDCD
:10287000F8BD1A42BFD06423A371BCE707F0AAFBDE
:102880002B7830600E2BC4D801220E4B1A7007F043
:10289000A1FB0A4B1860BCE77F332370D5E728788B
:1028A000FFF71CFFE4E7C046650C0020B80F0020CE
:1028B0006A0C0020A40F0020B40F0020B00F0020ED
:1028C00088130000640C0020AC0F0020A00F002033
:1028D0009C100020A80F0020BA0F00204D260020D9
:1028E0004E2600204C260020CCCC000870B5802459
:1028F0000423214DA4002B8321002800012209F08C
:10290000B6FC28000122402109F0B1FC6C83C13CD7
:10291000FF3C6C831026032532003100300005F0A7
:10292000ABFF220021002000FFF738FD220021002C
:102930002000FFF743FD05F02DF9FFF797FC0F4846
:1029400008F017FC00221100100005F095FF00228E
:1029500011001000FFF722FD002210001100FFF708
:102960002DFD013D05F016F9FFF780FC034808F046
:1029700000FC002DD0D170BD00080048204E0000A2
:10298000F8B5032300241B4E1B4D33701B4A013B3B
:102990002B70013B13701A4B1A4A1B4F1C701B4BB8
:1029A00014703C701C7007F015FB194B1860194B24
:1029B0001C7006F0BDFB0C2006F0F6FB972006F01D
:1029C000FBFCFF214C22080006F04CFCA52312481A
:1029D0000A4A03703B784370337883702B78C37056
:1029E0001378084A0371137843710123837102F04D
:1029F0006AFEF8BD660C0020680C0020670C002001
:102A0000E70F0020C00F0020E50F0020E60F002098
:102A1000E80F00209C100020D4260020042370B56D
:102A2000564C0122238320004021802509F01FFC01
:102A30004023AD00638329002000012209F017FC28
:102A4000002265831100FF2005F016FF05F0A2F8B3
:102A50000022FF201100FFF7A1FC0022484C1100CA
:102A6000FF20FFF7ABFCFFF701FC200008F081FB23
:102A70000022FF21100005F0FFFE05F08BF8002278
:102A8000FF211000FFF78AFC0022FF211000FFF752
:102A900095FCFFF7EBFB200008F06BFB0021FF2209
:102AA000080005F0E9FE05F075F80021FF22080096
:102AB000FFF774FC0021FF220800FFF77FFCFFF7FF
:102AC000D5FB200008F055FB80221100100005F016
:102AD000D3FE05F05FF8802211001000FFF75EFCC6
:102AE000802211001000FFF769FCFFF7BFFB2000F8
:102AF00008F03FFB80210022080005F0BDFE05F034
:102B000049F8802100220800FFF748FC80210022BC
:102B10000800FFF753FCFFF7A9FB200008F029FB92
:102B200080220021100005F0A7FE05F033F8802276
:102B300000211000FFF732FC802200211000FFF777
:102B40003DFCFFF793FB200008F013FB80220020E0
:102B5000110005F091FE05F01DF880220020110003
:102B6000FFF71CFC802200201100FFF727FCFFF775
:102B70007DFB200008F0FDFA70BDC046000800484B
:102B800050C30000F7B5C34D286807F067FAC24C80
:102B900023781B18237007F01DFAC04B28601878A3
:102BA000042860D8BE4ABF4B1278FDF72BFB050006
:102BB00097002C01DE009D019A5C23789A4252D244
:102BC0009B1ADBB2142B64D8B749B84A0978237032
:102BD0001378002962D0D91EC9B2DF295BD81170E1
:102BE000137800220326B24D0092AF4AB14C1278FE
:102BF000B149002A5AD030005843B04A875C1218B5
:102C000027701C005078183408709178AC4AE4B2F0
:102C10001170DF2C01D93833DCB2AA4BAA4A1B78D9
:102C2000D05CFFF709FBA34B2A781878A24B7243BC
:102C30001978A34B89081B7880089B080193A34B44
:102C40009F18D1543A007870019F97706A780235C6
:102C500072439F18D154009B019A01337870BA7067
:102C60000093062B20D1FFF781FDFFF707FCFFF74C
:102C7000B5FBFFF753FCFFF767FC954C206807F0A6
:102C8000EDF91E2804D907F0A5F92060FFF7EEFA48
:102C9000F7BD002398E7233B1370A1E7991EC9B243
:102CA0006F299CD96E33F7E723009EE7894A107895
:102CB000894A7043875C121827701C0050780C34C6
:102CC000087091787E4AE4B211706F2C01D9643B90
:102CD000DCB2824B185DFFF7AFFA9EE79B185A797A
:102CE00023789A42BFD29B1ADBB2142B38D82370B8
:102CF0006E4B1A78511CC9B2DF2933D819700324DE
:102D00001A786E4B6243D15C9B185A786C4D9B7855
:102D1000694E2B706B4B32701B786B4A654FD05CE1
:102D20003970FFF789FA2A7800253F783678604BAA
:102D30006649BF08B608920800941878009C0135CF
:102D400060430C1867704654A2705878009C023398
:102D500060430C1867704654A270062DEDD182E7CF
:102D60000023C4E721321A70C9E79B18DA7B237865
:102D70009A4200D377E79B1ADBB2142B3ED8584A0D
:102D800023701378591EC8B2090639D41070032471
:102D9000504B4B4D1978504B6143C85C5B185978C8
:102DA0009B78444F2B7013784E4A434E3870D05C5A
:102DB0003170FFF741FA434B434A1B78D05CFFF771
:102DC0003BFA2A7800253F783678394B3F49BF08CF
:102DD000B608920800941878009C013560430C18DE
:102DE00067704654A2705878009C023360430C18F8
:102DF00067704654A270062DEDD134E70023BEE77C
:102E00007F331370C3E79B189A7A23789A4200D3D2
:102E100029E79B1ADBB2142B3AD82370234B1A787C
:102E2000072A01D900221A7000250326204C294BBD
:102E3000204F1A78284B7243D15C9B185A7839700E
:102E40001D499B780A701E4A013513701D4B1E4A9E
:102E50001B78D05CFFF7F0F9174B21781878184BE6
:102E600071431B78194A9B080093800853188854B3
:102E700000993F7899706178BF0871435F708854FA
:102E80005318009A5F709A700234062DCFD1EAE68B
:102E90000023C2E7E80F0020E60F0020E50F002026
:102EA000680C0020F9D30008670C0020E70F002011
:102EB000E7D300084D2600204E260020E7CD00086D
:102EC0004C260020660C0020F3D30008C10F002020
:102ED000EC0F0020C00F0020CCCD000812D4000859
:102EE000B90F0020CCCC00089B181A7D23789A4299
:102EF00000D3B8E69B1ADBB20022142B1CD8237037
:102F00000E4B03251A700E4B0E491A700E4B0F48CC
:102F10001A70002213000C7801326C4306192354F6
:102F20004C7873706C43B370061973702354B3708C
:102F30000231062AEFD196E62270E1E74D26002005
:102F40004E260020E7D300084C260020C10F0020A9
:102F500070B5454C2378022B15D10122434B1A70D2
:102F60000023434A13706278042A11D922004832A0
:102F700010781A003F4EDDB2F15C854204D38A42DC
:102F800006D00523237070BD5218D2B20133F2E788
:102F9000230046331B78C92B15D008D8812B4AD083
:102FA000C72B0ED0002363702370A370EBE7F22BC6
:102FB00003D0F42BF6D1304B00E0304B01221A70D5
:102FC000F0E72F4BFAE722002E4B4932197812789E
:102FD000914220D100212C4A117022004A321278ED
:102FE000DA70032A07D122004B3212780731100021
:102FF000884300D15A71220021004C3212784D31A1
:103000001A710978642900D89971D20701D5642210
:103010009A711E4BD2E7DB78FE2BFAD01A4A13784E
:10302000042B05D9002313700122194B1A70F0E705
:1030300001331370EDE72100164D4931202228009D
:10304000FDF7E2FB2B79042B01D80E4A13706B7944
:10305000032B01D80B4A5370AB795A1E022A01D8B0
:10306000084A93700C4BA9E74F260020331000202C
:1030700066100020982600202D1000202E10002021
:103080002F1000206A0C00202B100020321000208E
:10309000A21000203510002030100020802370B5D1
:1030A0000D000600124C5B006383052008F061F8F8
:1030B0003000A9B207F062F81E20684303003233E3
:1030C00013D00C4A002332300021FDF747FA0023C9
:1030D000094A80185941094A0023FDF71FFA08F0F0
:1030E00048F880235B00238370BD0120F7E7C046CA
:1030F00000040048A08601003F420F0040420F003C
:1031000000234118884202D15A2058407047027863
:1031100001309B18DBB2F5E770B504000D00101EFE
:103120002ED0554A00230021FDF718FA0023534AF8
:1031300080185941FA2200239200FDF7EFF908F0B8
:1031400018F83E2200214E48FDF7B2FB5A234D4E9F
:103150007371B471C32C54D01CD8B12C38D011D891
:10316000812C00D175E00023474C48482370317A08
:103170000531FFF793FF002D00D070E0E02070BD17
:103180000120DCE7C02C2DD0C12CECD101233372FF
:10319000173324E0C92C1ED016D8C52C18D0C72C44
:1031A000E1D101223A4B0221DA701B78B2727372BC
:1031B0009B18F3720023374A31721380364AFD316F
:1031C0001170364A1370CEE70F34E4B2012CCAD81E
:1031D00001233372C7E7012333722D4B1B787372BF
:1031E000B372C0E702222A4BDA70013A327200222F
:1031F0001B787372B372274B1A80274BFF321A70F9
:10320000B1E701231121412273720E33B3723F33B0
:10321000F37227333373253B73731833B3735B181F
:10322000F3737274593B28323374B274B375093234
:103230003633F274F3753B3A243B32753376023AF7
:10324000053B1748317272757376FFF759FFB076F8
:1032500089E7022333721E33B372F37283E764206B
:1032600007F087FF2378013DEDB2002B00D085E702
:10327000002DF4D1E32082E7A0860100E7030000DF
:10328000562600204F260020331000205426002010
:103290006A0C0020BA1000202A1000202F100020F5
:1032A0005826002070B53C4C206806F0D7FEC72891
:1032B00037D906F08FFE2060384C2278002A31D0B2
:1032C00000231026364D3748237007F052FF36484A
:1032D0006E8307F04EFF2E83334807F04AFF334DCD
:1032E000334B29781A78042927D1002A07D00022E5
:1032F0001A70304B186806F053FC00F06DFC002289
:103300002D4B1A700122C9201100FFF705FF2B7801
:10331000042B06D0294A13780133DBB2042B35D8AD
:10332000137070BD264B19780029D8D01A700A2264
:10333000C0201100FFF7F0FED1E7022A06D00222DA
:103340001A7000F049FC002006F02AFCEA781D49BA
:10335000032A0DD00B78092B07D90321164B1970BE
:103360000021194B1980194BCBE701330B70C9E7CA
:1033700000230B70104916480B701449038008781D
:103380000328BFD00A70104A1380BBE700231370D4
:1033900001332370C5E7C0465C10002031100020C7
:1033A0000004004810270000881300006A0C002069
:1033B000A5100020B0100020B610002066100020DC
:1033C000A21000202A100020B8100020690C002054
:1033D000BA100020134B70B51B781400002B1FD0BF
:1033E000114B1A78042A1BD0DB78032B18D10F4D10
:1033F0000F4E57336B71A871593B22003000EB71AF
:103400002C72FDF701FA21003000FFF779FE2D192B
:103410006872611D0748FFF741FE142007F0A9FEFE
:1034200070BDC0469F1000206A0C00204F2600206F
:1034300058260020542600200022064B10B51A8082
:1034400006F058FC044902220880E320FFF7C2FF7F
:1034500010BDC046B41000202810002037B56846C3
:1034600003F05EFA0022084B05251A806B46074CD4
:103470002A00591C2000FDF7C7F92A002100E0208E
:10348000FFF7A8FF37BDC046B41000206010002031
:103490000022064B10B51A8006F026FC04490222D1
:1034A0000880E420FFF796FF10BDC046B41000204E
:1034B00068100020F0B5644D85B02B78042B00D146
:1034C0008BE00122614B1A70614B1B787F2B08D96E
:1034D00001F078FF040001F091FF5E4B04431B688C
:1034E0005C70EB79A22B19D15A4B5B4C1D680822FA
:1034F00029002000FDF760F9002800D186E00023B4
:10350000564A29001380200008226B70FDF77CF9D1
:1035100008222100E120FFF75DFF5EE0A12B00D033
:1035200074E04C4B4E4E1D681022691C3000FDF7B4
:1035300043F900286AD00024484B32781C806B780D
:103540009A4202D0444A013413700122AB1C00930A
:1035500000231700434D01934149D300565C009965
:10356000DBB2097802934E400121083BDBB203969F
:10357000039E31420BD0009806780E4237D00226C7
:103580003548305C00282AD1334883553C0001334C
:1035900002984900DBB2C9B29842E9D1009B0132DE
:1035A000013300930135102AD6D1019B002B06D0A0
:1035B00001212D4BE22019702A49FFF70BFF002C47
:1035C00004D008222449E120FFF704FF214B1022F8
:1035D000196823480131FDF717F905B0F0BD013630
:1035E000082ECDD16E780E436E700197CFE702267C
:1035F0001948305C984203D1002417488455C5E728
:103600000136082EF4D16E788E43EDE7174C206812
:1036100006F024FD6428E0D906F0DCFC0F4B2060A6
:103620001B88114CC82B0BD808220B49E120FFF74F
:10363000D1FE2378002BD0D010220A49E2206AE77D
:1036400000232370C9E7C0466A0C0020780F0020D1
:10365000DE260020E00D002020100020B410002005
:10366000001000206A1000202C10002058100020AC
:1036700070B5012506F08EFD124B041E0AD11A7892
:10368000002A06D0187002230F4D2B70FFF760FC44
:103690006C7070BD0C4C1D7066783F2E09D906F019
:1036A00063FD06F077FD0028E4D1143007F061FDDA
:1036B000E0E7731C637006F057FDA41945342070D1
:1036C000EFE7C046651000204F260020E12010B52E
:1036D000C00206F029FD01220B4B196891431960C5
:1036E000A021186849010143196019680A431A604A
:1036F000064B07499A680A409A60A022D968D2010D
:103700000A43DA6010BDC04600380140000400489A
:10371000FF0FFFFF70B50023FA260B24264D76001D
:103720002B70013CE4B2002C0ED014220021F220B8
:10373000FFF7F2FC300007F01CFDFFF799FFFFF7E1
:1037400097FF2B78002BECD00023FA260B241B4D7F
:1037500076002B70013CE4B2002C0ED01422002124
:103760008120FFF7D9FC300007F003FDFFF780FF51
:10377000FFF77EFF2B78002BECD00023FA260B24DA
:103780000F4D76002B70013CE4B2002C0ED01422B9
:103790000021C920FFF7C0FC300007F0EAFCFFF76A
:1037A00067FFFFF765FF2B78002BECD014220A216E
:1037B000C320FFF7B1FC70BD2E1000203010002098
:1037C00032100020F8B54F4C206806F047FC312835
:1037D0005FD906F0FFFB20604B4C4C4E2378002B4A
:1037E00058D0002323704A4B9B79002B1CD0052214
:1037F000484B1100DB78C120032B00D0F120464D4F
:10380000FFF78AFC01220421280008F030FD042380
:103810000022402128006B8308F029FD802100222E
:103820008900280008F023FD012333703B4B1B88DF
:10383000092B2BD804230027374D377001222B8307
:103840004021280008F013FD402380216B830122D2
:103850008900280008F00BFD80239B006B83012268
:103860003900F220FFF758FC2A4B1B78042B0DD1AE
:103870002B4D10372B6CC8203B432B6407F079FC91
:103880002B6C2848BB432B6406F012FF2378002BD7
:1038900003D0F8BD3378002BC8D13378002BF8D192
:1038A0001C4A117804290FD11E4A11781E4A052995
:1038B00008D113780133DBB21370132BE9D901233C
:1038C0002370E6E71370E4E7D278032A07D1174A9A
:1038D0001360124B1A88164B9A42F0D8D9E7154953
:1038E00015480D88854201D90B80E8E7042AD0D11C
:1038F0000E490A680132642A01D80A60C9E70B60E0
:10390000DDE7C0468C1000202D1000203410002070
:10391000D42600206A0C002000080048B4100020C3
:10392000005C0040302900209410002090100020FE
:103930009F8C0000BA100020DF2E0000802130B5DF
:10394000072301251C4A49002C009C40118320427A
:1039500019D00324C046C046C046C046C046C04633
:10396000013C002CF6D15183C046C046C046C0463B
:10397000C046C046C046C046C046C046C046C04617
:10398000013BE1D230BDC046C046C046C046C0463D
:10399000C046C046C046C046C046C046C0460324D6
:1039A0005183C046C046C046C046C046C046013CE2
:1039B000002CF6D1E4E7C04600080048F7B5060041
:1039C000019172B600240327019B9C420CD3E02393
:1039D0009B00C046C046C046C046C046C046013BEC
:1039E000002BF6D162B6F7BD3D0065437519287806
:1039F000FFF7A4FF6878FFF7A1FF0134A878FFF76D
:103A00009DFFE4B2E0E7000070B580251F4CAD00DB
:103A100020000122402108F02AFC29002000012278
:103A200008F025FC80264023760063836583184DCB
:103A300031002000012208F01AFC280066833100C2
:103A4000012208F014FC20222E832800110008F027
:103A50000EFCF03E28000122102108F008FC6E83C5
:103A60000C4807F086FB2E8320002022012108F05D
:103A7000FEFB20002022022108F0F9FB0122042194
:103A8000200008F0F4FB0423238370BD00080048E5
:103A9000000400488813000070B5434C206806F00D
:103AA000DDFA63286ED906F095FA404920600B785C
:103AB0003F4A002B67D0138801339BB213801D2B24
:103AC0001CD90023FA2506240B703A4BED001A7816
:103AD000394B1A705A709A70013CE4B2002C0DD028
:103AE00001220021C720FFF717FB280007F041FB48
:103AF000FFF7BEFD314B1B78002BEDD03049314A2A
:103B00000B78002B4BD0138801339BB213801D2BF5
:103B100029D90023284C0B702378042B35D0002B97
:103B200003D001232370A37063700A22C020110008
:103B3000FFF7F2FA244807F01CFB0A22C520110007
:103B4000FFF7EAFA01F020FEFEF7D0FEFEF718FFBD
:103B5000E3791E4CA22B1AD1012001F094F87F22A8
:103B60002378134023701A491A4A0B78002B18D077
:103B7000138801339BB213801D2B03D900230B70D4
:103B8000FEF74CFF70BD1380B8E70123CBE704209C
:103B900001F079F8802322785B421343E2E7138037
:103BA000E1E71380EEE7C046AC100020A010002033
:103BB000BC100020BE1000206A0C00202F10002036
:103BC0009E1000209610002050C30000DE2600202A
:103BD000A1100020C0100020F0B52C4C85B0257835
:103BE00001F022FC01F004FC01F000F88023284FD2
:103BF00022785B4213430021202238682370FCF7AF
:103C000057FE386805F0E6FFFA207F26800007F0AF
:103C1000B0FA237820223340002138682370FCF763
:103C200047FE386805F0D6FFFA20800007F0A1FAB9
:103C30002378ED09ED0133402B432370154B1B789E
:103C4000042B16D0102200216846FCF731FE10220A
:103C50006946E220FFF7BEFBFA20800007F089FAF0
:103C6000E12008226946FFF7B5FBFA20800007F043
:103C700080FA202200210848FCF71AFE08220021C1
:103C80000648FCF715FE05B0F0BDC046DE26002054
:103C9000E00D00206A0C0020001000202010002001
:103CA00070B50500042812D80024FFF795FF012203
:103CB0000A4B1D70DC700A4B1A700A4B042D07D199
:103CC0001C70094B186805F06BFF084B1C8070BD19
:103CD000022220001A7005F063FFF8E76A0C00204A
:103CE000A2100020A5100020B0100020B810002065
:103CF000F8B53B4E3B4C3378002B26D006F06AF9E2
:103D0000394D206020220121280008F0B0FA20223D
:103D10000221280008F0ABFA01232C692A691C4013
:103D2000DB181A4217D1314F314D3B78A34214D0E2
:103D3000FFF752FF00232F4A3C7013802E4A138056
:103D400019222A702D4A137004E0206806F086F9C3
:103D50001328D3D8F8BD1C43E5E72B78002B02D0FD
:103D6000013B2B70F6E7264D2B78E20722D5042085
:103D7000042B22D1EB79A20722D5A22B0DD0012052
:103D8000204B187000F07FFFA2237F211E4AEB71A9
:103D900013780B401370FFF71FFF184B187800289B
:103DA000D8D101221A702B783070042BD2D005F0B4
:103DB000F7FECFE768789842DCD0FFF771FFD9E7CC
:103DC000A12BEAD001220F4B04201A7000F05BFFF8
:103DD000A1230D4AEB711178223BFF3B0B43D9E73E
:103DE000730C00209810002000080048720C00207E
:103DF00095100020B4100020BA1000209F10002061
:103E00006A0C0020A4100020DE260020F7B5002454
:103E100020220121284808F02AFA202202212648DF
:103E200008F025FA270023000121234A15691269A9
:103E30000D40491811400E00721E96410191F6B2D4
:103E4000BD4224D19E4200D0002401346420E4B25B
:103E500007F08FF933000A2CE6D1184C2378002D97
:103E600017D00420042B17D1019AE379002A16D029
:103E7000A22B0BD0012000F006FFA2237F21104AC5
:103E8000E37113780B401370FFF7A6FEF7BD2F0008
:103E9000DAE760789842E7D0FFF702FFE4E7A12B6A
:103EA000F4D0042000F0EFFEA123054AE37111785D
:103EB000223BFF3B0B43E6E7000800486A0C00206A
:103EC000DE260020164B10B51A78164C002A08D0B2
:103ED00000221A7006F07EF8206005F067FE124B93
:103EE0001860206806F0BAF8092817D906F072F8A9
:103EF0002C210E4AFF31138820608B4201D80133F8
:103F000013800B4A0B4913888B4201D00133138075
:103F1000094A13888B4201D00133138010BDC0467B
:103F2000740C0020A8100020B0100020B810002051
:103F3000B4100020FFFF0000BA100020F8B5184CA4
:103F4000200001F0B0FB2378164F174E174DA52B1C
:103F500018D0FF214C22080005F084F9A523237016
:103F60003B78200063703378A3702B78E370104B9C
:103F70001B7823710F4B1B7863710123A37101F030
:103F8000A2FBF8BD63780A4A3B70A3783370E378EC
:103F90002B70237913706379064A1370F1E7C046DA
:103FA000D4260020E50F0020660C0020680C0020BD
:103FB000670C0020C00F00200022994B10B51A801A
:103FC000984B0124C01817281DD84C79FCF71AF912
:103FD000180027003500440050005D0078007E0086
:103FE00090009500A400BB00DD00E400E900F000B3
:103FF000F700FE000301090117019A0020012601C4
:10400000002C02D10024200010BD874B1B78042B0C
:10401000F8D114220A21B120FFF77EF8F2E7002C34
:1040200002D0FFF7D9FDEDE704227F4B1A7006326C
:104030001100C020FFF770F8E5E7002C2ED07A4B76
:104040001B78042BDED000240122784B1C70784BA7
:104050001A70FFF7C1FDD6E7002C1FD0724B1B78FA
:10406000042BCFD00123714A1370714A1370D8E723
:10407000002C13D06C4B1B78042BC3D002226B4B4B
:104080001A706B4B01221A70CBE7002C06D0664BDE
:104090001B78042BB6D0654B0322F1E7644B1A78EA
:1040A000002AAFD01C70634B1B881D2BAAD85F4B16
:1040B0000A211A785C4B1A705A709A701422B8E769
:1040C000002C18D05C4805F0F3FD9BE7002C99D03C
:1040D000E32000F0B9FA2C2000F0B6FA574807F0B8
:1040E00048F8E32000F0FCFA2C2000F0F9FA89E708
:1040F000CF20002CE7D10020E5E7002CFBD0A82042
:104100008000E0E7002C03D09B2005F0B5FD79E7A7
:10411000200005F0B1FD76E7002C00D172E7E32026
:1041200000F092FAE12000F08FFA202000F08CFAE3
:10413000424807F01EF8202000F0D2FAE12000F0FB
:10414000CFFAE320D1E7002C00D15BE7364BE32028
:10415000DB79A12B0CD100F077FAE12000F074FAA2
:10416000162000F071FA354807F003F81620E3E74F
:1041700000F06AFAE12000F067FA212000F064FA0A
:104180002E4806F0F6FF2120D6E70120002C00D1B2
:1041900038E7FEF773F835E7002C00D132E700204E
:1041A000F7E7002C00D12DE70120FEF7D5F829E72D
:1041B000002C00D126E70120FEF794F822E7012029
:1041C000002C00D11EE7FEF771F81BE7002C00D190
:1041D00018E70020F7E71A4B002C00D052E71C70BC
:1041E00011E7002C00D10DE7164883795A4253415C
:1041F00001228371144B1A7001F065FA02E7002C5A
:1042000000D1FFE60123114A11784B401370F9E603
:104210000F4B002CE3D001221A70F3E60D4BF8E7A8
:10422000B41000200082FFFF6A0C0020BE100020A6
:10423000A0100020BC1000209F0200008813000086
:104240009E100020D4260020A31000209C100020E7
:104250009D100020A1100020074B10B51B78002BEB
:1042600001D0FEF733FA002355201A00190003F09D
:1042700099FC012010BDC0469D10002010B5FFF72D
:10428000C3FBFFF723FA064806F073FFFFF742FA75
:10429000FFF7A2FCFFF7BAFDFFF750FE10BDC046C6
:1042A00050C3000010B5FFF70DFEFFF7E1F9FFF76F
:1042B00001F9FEF7F7FFFFF7EFFBFFF719FDFEF738
:1042C00061FCFFF77FFA10BD10B5012404280CD85B
:1042D00005290AD8102A08D811234B4366214143E7
:1042E0005B189B18A340024A9C5A200010BDC04690
:1042F00012D5000810B5FFF7E7FF10BD0120704789
:1043000010B5FFF7FBFF10BD0120704710B5FFF798
:1043100053FE10BD704710B5FFF7FCFF10BD000045
:1043200013B5114B00901B780191002B16D16B46F1
:104330005B79002B0DD0002A0BD000F077FD040034
:104340000100009800F04AFD2000009901F0DAFB1E
:1043500016BD009800F056FD0400F5E7009800F047
:1043600065FD0099F2E7C046C910002010B50400B1
:10437000638800881B040A001843A188FFF7D0FF58
:1043800010BD10B504000121FFF7F0FF2100FFF779
:10439000B7FF10BD10B504000021FFF7E7FF2100B3
:1043A000FFF7B9FF10BD704710B500F01FFCFFF715
:1043B000FAFF024806F0DDFE10BDC046A86100000D
:1043C00010B5FFF7F1FF05F069FE10BD10B5FFF75E
:1043D000EBFF05F073FE10BD37B501210400FFF7B8
:1043E000C5FF6B469D1D28802100280005F03CFA82
:1043F000002801D100203EBD28882100FFF786FF5C
:104400000028F7D02888210005F074FB0028F1D09F
:104410002888210005F024F90028EBD02888210005
:1044200005F0F8F90028E5D02888210005F040F8CB
:104430000028DFD06379002B0BD02B881C4A9342D5
:104440002AD00AD81B4A934228D015D8013A934261
:104450000FD02000FFF758FFCDE7174A934223D033
:10446000164A93421DD0164A9342F2D101F0C8F881
:10447000EFE7FFF7A5FFBDE70122124912480B78CD
:10448000DC07E40F544093431C430C70144000D0ED
:104490000E4802F09FF8ADE701F0BEF8FFF796FF77
:1044A000A8E701F0A1F8D4E701F0AFF8D1E7C046E2
:1044B000037C0000017C00005B7C00005C7C000051
:1044C0005A7C0000B81100201FD900080ED900083E
:1044D00010B500F04AF8002004F0C4FD05F045FDD9
:1044E00010BD3322030100091843C0B283008010BD
:1044F000104093430343DBB2223258005B109043D9
:1045000013401843C0B2704770B50500C0B2FFF742
:10451000E8FF0400280AFFF7E4FF2402204380B2EA
:1045200070BD70B5050080B2FFF7EEFF0400280CE7
:10453000FFF7EAFF2404204370BD70470120704755
:10454000704770B5051CFFF7F9FF041E02D0281C48
:10455000FFF7F6FF200070BD704710B50400FFF7AD
:10456000ECFF201CFFF7EDFF10BD10B505F024FB9C
:10457000FFF7F3FF10BD000070B505F01DFB124BF7
:1045800004001A7882421ED0187005F023FD0F4BEC
:104590000F4E186033785A0712D501252B420FD0E1
:1045A0000C4802F017F833782B4209D021000A4852
:1045B00002F010F833782B4202D0084802F00AF8D3
:1045C0002000FFF7CAFF70BDC8100020C4100020F3
:1045D000B811002031D900083CD9000892DA00084F
:1045E0001FB50B0ADBB200900191002B01D000F047
:1045F0001BFF0E2300226B441A80009B02AC029327
:104600006B469B88A380DBB2934204D10298616819
:1046100000F046FE1FBD2000FFF7B3FE0028F5D1D5
:10462000F8E7037910B5012B02D1008800F020FCD7
:1046300010BD10B5002904D002F046F802F0EAF8E7
:1046400010BD02F08FF8F9E710B5041E14D0031F57
:10465000DBB2A02B11D81F4B0100186805F06CFBD2
:10466000002804D0200000F083FE00F025FF200089
:1046700000F074FE00F020FF10BD03002033DBB219
:10468000072B07D8072301201C40A040C0B200F030
:104690009FFEEFE703005B33DBB2022B04D80E4A28
:1046A000D05C05F0E9FAE7E703005833DBB21A2BD8
:1046B00005D80A4A5B00985A05F0FAFADCE70300CD
:1046C0003333DBB2122BD7D801F0FEFF02F0A2F891
:1046D000D2E7C046E00D002041D9000844D90008C7
:1046E00010B5002807D0031FDBB2A02B04D800F0C0
:1046F0003FFE00F0E1FE10BD03002033DBB2072BCC
:1047000007D80723034001209840C0B200F068FE9C
:10471000EFE703005B33DBB2022B03D8002005F088
:10472000ABFAE8E703005833DBB21A2B03D80020BA
:1047300005F0BEFADFE703003333DBB2122BDAD821
:1047400002F010F802F066F8D5E770B505000C002D
:10475000FFF77AFF002C03D12800FFF7C1FF70BDDF
:104760006420013C06F005FDA4B2F3E710B550212A
:10477000392800D04839FFF7E8FF10BD10B50028F0
:1047800003D000F025FE00F097FE10BD10B5002804
:1047900003D000F025FE00F08FFE10BDF0B585B00F
:1047A0000C1C87790290457900F002FE23043F0932
:1047B00001900393002826D00195002D23D02304D7
:1047C0001B0E0F221900914340290DD02200002119
:1047D0002032D2B20191072A15D98F4204D11F226B
:1047E00001979343202B0ED00022A94B01925B78B6
:1047F0005B0708D5022000F0B9FE00F0D9FD0123C7
:104800004340DBB201932304180F0B283FD8FBF77A
:10481000F9FC0C000C005E005E00BE00D3003E0000
:104820003E00D8002F01410141010F22230426053B
:104830001B0E360F934300D03601E4B2002D12D088
:10484000002E0BD023002033DBB23000072B01D920
:10485000002C05D100F0BCFD00F02EFE200057E03A
:1048600000F0D2FDF8E72000FFF73AFF002E0ED04F
:1048700023002033DBB23000072B01D9002C02D1FA
:1048800000F0AEFD01E000F0C7FD00F015FE039B57
:104890001B0F083B032B03D805F08EF9FFF75DFED5
:1048A000019B002B11D000F07BFD012318400CD19F
:1048B000029B587100F06EFD00F022FA029800F0A1
:1048C0005DF900F067FD00F027FA05B0F0BD0F229A
:1048D000230426051B0E360F9343202B00D03601F0
:1048E000E4B2002C06D0012C36D0002D40D0002F91
:1048F0001CD0B3E7664B5B785B0713D4002D0AD05E
:10490000002E04D0300000F063FD00F0D5FD002043
:10491000FFF79AFEBBE72800FFF7E2FE002EB6D0B5
:104920003000ADE7002D0BD0002F03D13000FFF792
:1049300025FFACE7012FAAD1300000F095FDA6E7D6
:10494000002FA4D13000FFF721FF300000F09AFDC6
:10495000300000F075FD9AE7002D02D0052F96D8A3
:10496000E4E7042F00D992E73000FFF70FFF8EE74E
:10497000002FF9D0392C07D1FA20400106F0F9FBBD
:104980002000FFF7ADFE82E7C8208000F6E7200593
:10499000800F0AD0012800D079E70020854201D09D
:1049A000A005800D05F084F971E7002D01D0A00568
:1049B000800D05F061F96AE7E0B22900FFF739FEE2
:1049C00065E723049B019B0F23D1002D00D05EE7F8
:1049D00023065B0F20079B00000F984080B2E20681
:1049E00003D50F359D40ED43ADB22405A40F2843F8
:1049F000022C08D00AD8012C02D000F053F946E767
:104A000000F046F943E700F057F940E700F03BF9C2
:104A10003DE7A205920FD1B20123002D1CD0134017
:104A2000002B00D133E72206520F20079200000F1F
:104A30009040002380B2E10603D50F339340DB435F
:104A40009BB22405A40F1843022C0BD00DD8012CC7
:104A500005D000F083F91AE749080B40E0E700F0C1
:104A600073F914E700F084F911E700F035F90EE767
:104A7000E6B22405240F002D03D0200000F040F9F9
:104A800054E73000FFF782FE200000F045F9FEE613
:104A9000DE260020E6B23000F038042842D8FBF7CA
:104AA000A7FB032611182200002D07D0042F00D9E0
:104AB000EDE6E004C00E00F03BF9E8E6052F00D972
:104AC000E5E6F6E7E004C00E002DDED100F018F9AF
:104AD000DDE6002D04D0E004C00E00F00AF9D6E6B1
:104AE00000F002F9D3E61C4B5B785B0704D4E004CA
:104AF000C00E002DC9D0E9E7002D09D0E404E40E72
:104B0000200000F0FDF80321200000F00DFDBEE6BE
:104B1000012000F02BFD012F00D8B8E6022000F0A4
:104B200025FDB4E6002D06D0002F01D03000EFE6C1
:104B3000E004C00ECAE7002F0AD0392E05D1FA20B2
:104B4000400106F016FB30001BE7C8208000F8E7A4
:104B5000E004C00E99E7C046DE26002070B50400D0
:104B60004079218800F08EF9051C00F00BF900F067
:104B700089F8291C2000FFF711FE70BD037910B5DC
:104B80000400002B11D0FFF727FC00280ED100F005
:104B90000FFC002809D06379002B06D0074B5B7807
:104BA0005B0702D5022000F0E1FC10BD2000FFF7FA
:104BB000D5FF2000FFF7EEFBF7E7C046DE2600201A
:104BC00010B5002005F058F8002005F071F800F04D
:104BD0002BFC00F071FC01F091FE01F01BFE10BDFA
:104BE00010B500F0CFFBFFF7EBFF10BD10B500F0E4
:104BF000FFFBFFF7F5FF10BDC3B20004020F10B5B5
:104C000000200B2A08D801210C00944022000C4CF3
:104C1000224202D152060BD410BDF02B0DD003D886
:104C2000E7229A424041F7E7F43B58425841F3E704
:104C30000800E72BF0D9F13BF7E70800ECE7C046A6
:104C40000C0C000003000279002010B5824204D051
:104C5000188800F00DF9FFF7CFFF10BD82B002B049
:104C6000704782B002B07047704710B5FFF7FCFF85
:104C700010BD000010B5FFF7F8FF014B188010BD04
:104C8000CA100020704710B5FFF7F4FF10BD0000F8
:104C900010B5034B1B881843FFF7ECFF10BDC0464F
:104CA000CA10002010B5034B1B881840FFF7E2FF25
:104CB00010BDC046CA10002010B5034B1B885840D9
:104CC000FFF7D8FF10BDC046CA100020704710B5CE
:104CD000FFF7FCFF10BD000010B5FFF7F8FF014B18
:104CE000188010BDCC10002010B50020FFF7F4FF95
:104CF00010BD0123834010B598B2FFF7EDFF10BD42
:104D000001238340034A10B51088184380B2FFF78F
:104D1000E3FF10BDCC1000200123834010B5034AEF
:104D200010889843FFF7D8FF10BDC046CC10002074
:104D300001238340034A10B51088584080B2FFF722
:104D4000CBFF10BDCC10002010B5034B1B881843BF
:104D5000FFF7C2FF10BDC046CC10002010B5034BBA
:104D60001B881840FFF7B8FF10BDC046CC100020CC
:104D700010B5034B1B885840FFF7AEFF10BDC0466F
:104D8000CC100020704770B50125CB089B00D218CD
:104D900007232E0019408E400021F6B20300CB40BD
:104DA000545C2B405B4263403340634053540131B9
:104DB0000429F3D170BD30B5072400220440C00897
:104DC00080000918012510008B5CE3402B409340C4
:104DD00001321843C0B2042AF6D130BD07B503042E
:104DE00001AA10801B0E0800052B08D81278102A83
:104DF00005D8112159438918014AFFF7C4FF07BD9F
:104E0000CE10002007B5030401AA10801B0E00205D
:104E1000052B08D81278102A05D8113058430249BA
:104E20008018FFF7C8FF0EBDCE100020F7B50F2485
:104E300001270D4B01AE1A880C4B30801B881A439A
:104E40000092009BE5B223413B4204D1013CF8D2E1
:104E500000252800FEBD3168280000F063FE80B206
:104E60000128F3D0F5E7C046CC100020CA1000207E
:104E700007B501AB18800198FFF7D8FF019900F042
:104E800051FE0EBD37B50F4B01AC1B782180002BB6
:104E900003D00198FFF7ECFF3EBD00280CD020683E
:104EA000FFF7C4FF050001002068FFF797FF019995
:104EB000280000F037FEEFE72068FFF7A3FF0500AA
:104EC000F5E7C046C910002070B507250B4B1C78CC
:104ED0000B4B1B78A34200D170BD0A4BE200D15AA4
:104EE0009B1858889A8800040843D988013409041B
:104EF0001143FFF7B6FE2C40EAE7C0464B110020F5
:104F00004A1100200A110020064B10B558881A8853
:104F1000D988000410439A8809041143FFF7A1FEC1
:104F200010BDC046021100200F221B48F8B583793E
:104F300093432BD14379002B28D0184B05881A783E
:104F4000174B46881C7807239C46164FA2421DD05B
:104F5000D300FB181979002919D01988A94216D154
:104F60005979002913D15988891B89B277290ED81C
:104F70000F241021827922400A4382719A792240BB
:104F800011439971FFF7FAFDFFF79EFFF8BD6346E5
:104F900001321A40DAE7C046021100204B1100200E
:104FA0004A1100200A110020F0B50C4B0C4A1B7866
:104FB00016780C4CB34202D100221000F0BDDD0087
:104FC000621957788F4205D12D5D854202D1527901
:104FD000002AF2D1072201331340EBE74B110020E6
:104FE0004A1100200A110020F0B504008BB00622FF
:104FF000010004A8FBF708FCA84D22792B796779FA
:10500000002B1CD10126002A00D17FE0002F11D0F7
:105010002000FFF717FE061E0CD0082221002800F2
:10502000FBF7F2FB2800FFF7FCFAFFF77DFFFFF725
:105030006BFF6BE02000FFF7A1FD012666E02378FF
:10504000009363780193638802936B8802996E7969
:10505000CB1A9BB2002E00D1DAE0772B00D998E072
:10506000002A53D02B880F200393AB7921881A0094
:1050700082435CD1039A91420ED1002F50D110226D
:1050800003401343AB71FFF73FFF2800FFF776FDA6
:10509000AB79A3713E0039E0002F41D1019900980E
:1050A000FFF782FF01990098FFF77EFF051EF1D1FF
:1050B000009A04AB1A70019A5A700498FFF7D8FE50
:1050C0000304190F0B2914D801228A40C0210901B9
:1050D000C0B20A421DD10C210A420FD1920708D05A
:1050E0001B011B0F01D000280FD02030C0B20728B1
:1050F0000BD92000FFF742FD350006E00F221B0E02
:105100001A42F2D0A3799343EFD12E0030000BB0B6
:10511000F0BDEF28F9D90F30C0B20228E9D8F4E782
:1051200001235E4A91790B4393710026EEE7039ABF
:1051300091420BD1002F09D1A3712000FFF71EFD72
:10514000082221002800FBF75FFB70E72000FFF733
:1051500079FD002800D16DE7002F00D16AE74F4BA1
:105160009A791F2A0BD906A81988018002994180D3
:105170001B798271037100234371FFF7FFFC082242
:1051800021004648FBF740FBFFF7CEFEFFF7BCFED1
:1051900053E7AB790F2118008843039017D100998A
:1051A00004AB197001991A71597002995F71598095
:1051B00005990498FFF752FD2800FFF7DFFC08224D
:1051C00003992800FBF774FBFFF79EFEADE7002A6A
:1051D0009CD02988228891420BD1002F09D1200030
:1051E000A371FFF7CBFC082239002800FBF760FB16
:1051F0008CE72000FFF726FD002800D11AE7002FDA
:1052000000D117E7254B08A89A791F2AB7D9ABE731
:10521000772B2FD80126002A00D177E73E1E00D138
:1052200008E72A8823889A4217D1AA79D3070ED48F
:105230000F2113008B430AD0A271F02B00D17CE721
:10524000D3B21A09013212010B40134374E708224A
:1052500021001248FBF7D8FA58E72000FFF7F2FCCC
:1052600000288CD10123AA7920001343AB71FFF7EA
:1052700085FC4BE7009904AB197001991A715970BC
:1052800002995F71598004980599FFF7E7FC08229D
:1052900031002800FBF70CFBC9E6C04602110020D4
:1052A000F0B585B06C46009020006160FFF79CFE71
:1052B000264E071E264D0CD02379002B02D003CC9E
:1052C000FFF7CFFC072728783378834225D105B034
:1052D000F0BD220002AB9C4603CA03C32379002B16
:1052E000F0D007233078441C1C402B789C420AD015
:1052F000184BC000181808226146FBF785FA347075
:10530000FFF7E2FDDEE7FFF771FC082239001248E3
:1053100037702F70FBF7CCFAD4E70E4CC000201882
:10532000FFF762FE0028D2D02B78DB001A5BE4186E
:105330006088E188A3880004090419431043FFF73B
:1053400090FC2B7801333B402B70BCE74A110020C6
:105350004B1100200A1100200211002010B5034B50
:105360000100186804F06AFD10BDC046E00D002081
:1053700010B5034B0100186804F074FD10BDC04661
:10538000E00D002010B5024B186804F07FFD10BD41
:10539000E00D0020014B1878C00870478C110020E8
:1053A000024B1878072318407047C0468C11002024
:1053B000034B187807231840431E9841C0B270472A
:1053C0008C110020014B18787047C0468F110020C7
:1053D000024B1A78104318707047C0468F11002096
:1053E000024A1378834313707047C0468F11002020
:1053F0000022014B1A7070478F110020014B187862
:105400007047C04690110020024B1A781043187064
:105410007047C04690110020024A137883431370EE
:105420007047C046901100200022014B1A7070474F
:1054300090110020704710B5FFF7FCFF10BD000071
:1054400010B5054A1378184204D08343180013702E
:10545000FFF7F1FF10BDC0468D110020704710B559
:10546000FFF7FCFF10BD0000010010B5044A1378DF
:105470001940814203D003431370FFF7F0FF10BDC2
:105480008E11002010B5054A1378184204D08343CA
:1054900018001370FFF7E3FF10BDC0468E11002007
:1054A00010B5044B1A78002A03D000201870FFF7BB
:1054B000D6FF10BD8E11002070B5134B134A1B7818
:1054C0001278134C1343134A206812780370002A91
:1054D00007D01343037004F013FC002801D0FFF73A
:1054E000DFFF24680C4D202229002000FBF764F91F
:1054F000002807D0202221002800FBF785F9200092
:1055000004F068FB70BDC0468F1100209011002090
:10551000E00D00208E1100206C110020704710B5A6
:10552000FFF7FCFF10BD0000094B10B55B785B076F
:105530000AD5084CC3000B432370FFF7E1FB20782A
:10554000C008FFF7ECFF10BDFFF7DAFBFBE7C04632
:10555000DE2600208C110020002010B5024B1870B0
:10556000FFF7DDFF10BDC0468C11002010B5094AC1
:1055700013781900814311704A070AD1994208D063
:10558000054B5B785B0704D5C808FFF7C5FBFFF741
:10559000E3FF10BD8C110020DE2600200F4A70B5FD
:1055A000537804005907C90F814215D00100012525
:1055B00004202940890083430B435370108800F076
:1055C00050F80220FFF7D2FF054B1B782B4203D087
:1055D0002100044800F0FEFF70BDC046DE2600201A
:1055E000B81100207AD90008044B10B5587801236F
:1055F0004007C00F5840FFF7D1FF10BDDE26002046
:1056000010B50120FFF7CAFF10BD10B50020FFF74D
:10561000C5FF10BD7047000010B501F025FC024920
:10562000002001F05CFA10BDFFFF000010B5002063
:1056300001F0FAF9024BC01843425841C0B210BD04
:105640001A01FFFF10B5022001F0E2F910BD10B5FC
:10565000032001F0DDF910BD10B5042001F0E4F9DC
:1056600010BD10B50100042001F039FA10BD10B5CD
:1056700001000F2001F03FFA10BD10B50020FFF728
:10568000F6FFFFF7C7FF10BD10B501000E2001F0B7
:105690001AFA10BD10B5132001F0D2F908384342B0
:1056A0005841C0B210BD10B50400FFF7F3FF082247
:1056B000011E04D02521200001F0DAFB10BD2000DE
:1056C000FBF7F6F8FAE710B504000821132001F003
:1056D00012FA08222521200001F0D8F910BD07B5E3
:1056E000082200216846FBF7E3F86846FFF7EBFF66
:1056F00007BD000013B501F0B7FB2149002001F000
:10570000EEF90021022001F0DEF90021032001F072
:10571000DAF9A02100241B4B490104201C8001F070
:10572000DEF92100062001F0CEF9FF21072001F06B
:10573000CAF92100082001F0DEF92100242001F03F
:10574000C2F92100172001F0BEF921000C2001F060
:10575000BAF921000D2001F0B6F9002300226846B5
:10576000009201931821083201F090F921002020C5
:1057700001F0C1F9FFF7B3FFFFF77FFF13BDC0468C
:10578000E6FE0000CA10002010B5FFF7B3FF10BD01
:1057900073B504F057FC094C0500238883420CD0F4
:1057A0006B4600261E8004F04DFC6B469E805880A0
:1057B00000980199FEF714FF258073BD9C1100200D
:1057C00010B504F007FC024B1860024B186010BDC6
:1057D00094110020981100207047704710B5FFF712
:1057E000FCFF10BD10B5FEF749FD10BD012070474C
:1057F00010B5054800F072FA01F032FBFFF7ECFF3C
:10580000FFF7ECFF10BDC046B1A7000801207047AC
:1058100010B5FFF7FBFF10BD704710B5FFF7FCFF99
:10582000FEF740FD10BD10B500F082FAFEF794FEC1
:1058300003F0AAFB10BD10B504F0C8FB00F05AFB42
:10584000FFF7F1FFFFF7CEFF10BD0000F0B587B006
:10585000FFF7CCFF002809D1FFF79AFF03F0FEFA0B
:1058600001F07CF8FEF788FE07B0F0BD00F05AFBAF
:105870002C4F00243D0020000134E4B22E6800F0DB
:1058800083FA062C4BD004358642F4D0264B1B7885
:105890009B0701D500F07EFAFFF7BAFF00240390C2
:1058A000200000F071FA3B6800900293029A904247
:1058B0002DD0012300250193029A009B5340019AA9
:1058C0001A421BD01600009B1E40731E9E41039B74
:1058D000F6B2002B0DD004AB1D705C7004F0B2FB6F
:1058E000012204AB58801A715E7104980599FEF785
:1058F00077FE32002900200003F020F9019B0135DA
:105900005B00EDB20193112DD6D1009B3B600134B9
:10591000E4B20437062CC3D1FFF752FF9EE786425C
:10592000B4D199E7A0110020B811002070B500F0A3
:1059300003F9624B040098422AD88023DB01984285
:1059400000D36CE0DF2819D8CD2854D2A7280AD874
:10595000A5284AD2012819D003B2002B01D004286F
:1059600014D2002412E0C228FBD85834E4B2544BBD
:105970006400E05A8824E401044307E0514B984254
:1059800000D989E0FF283BD8E728EAD8201C70BD61
:105990004D4B984212D84D4B98424ED24C4B9842A8
:1059A00046D81F3B984269D30323C4B2A0081C40C9
:1059B000023BA34040011843464C1EE0464B984230
:1059C00007D81F3B984243D31F2020400002434C7E
:1059D000D2E7434B984246D9424B9842C1D8040281
:1059E000F820400104404048C6E75B343F4AE4B237
:1059F000145D1C43CAE7A020C0010443A4B2C5E75C
:105A0000000AC0B200F01CF90500E0B2F82400F072
:105A100093F864012D0225400543ACB2B6E7C0B24D
:105A200000F08AF8F0231B011C4004433048E4E7EF
:105A30001F20204000022F4C9EE70323C4B2E00643
:105A40001C40023BA340400F400118432A4CD4E7BE
:105A50000323C4B2E0061C40023BA340400F4001B8
:105A60001843264CC9E71F20204000F0E9F8F8242D
:105A70000002640120400134FF347DE71F202040F4
:105A800000F0DEF8E405240F2402C30600D500016F
:105A900000B220431A4CB0E7C004C00E00F0D0F8AA
:105AA0000500E0B2F82400F047F864012D0225401B
:105AB00001340543FF342C43A0E7C046FF4F0000EC
:105AC00092D90008FF1F00005F5200004052000002
:105AD0001F520000008DFFFF9F520000F4A0000045
